:100000000C9462000C94BE070C9497070C948A0021
:100010000C948A000C948A000C948A000C948A0038
:100020000C948A000C948A000C948A000C948A0028
:100030000C948A000C948A000C948A000C948A0018
:100040000C944D070C948A000C941B070C94F50635
:100050000C948A000C948A000C948A000C948A00F8
:100060000C94E5070C948A0000000000250028008D
:100070002B000000000023002600290000000008DB
:10008000000201000003040700000000000000005F
:1000900000000000240027002A00010204081020AC
:1000A000408001020408102001020408102004040A
:1000B0000404040404040202020202020303030310
:1000C0000303000911241FBECFEFD8E0DEBFCDBF70
:1000D00011E0A0E0B1E0ECEDF7E102C005900D9277
:1000E000A838B107D9F723E0A8E8B1E001C01D9214
:1000F000AD34B207E1F710E0C2E6D0E004C02197CA
:10010000FE010E94E60BC136D107C9F70E94B4096F
:100110000C94EC0B0C94000096E0899FD001112404
:10012000AE52BD4F90967C936E935F9791E09196FF
:100130009C939197E0913F03F091400390913E038F
:10014000992339F0309751F0811108C08091EE0267
:100150000994309719F05C968C91FACF0895CF925C
:10016000DF92EF92FF920F931F9396E0899FF00129
:100170001124EE52FD4F11A2278D30A121303105FF
:1001800051F178F02230310509F451C023303105A6
:1001900009F452C01F910F91FF90EF90DF90CF9024
:1001A00008956623B9F361E070E00E948C002FB7D8
:1001B000F8948091250290912602A0912702B09197
:1001C00028022FBF80932A0390932B03A0932C0324
:1001D000B0932D03DFCF9FB7F894C0902502D09045
:1001E0002602E0902702F09028029FBF00912A0388
:1001F00010912B0320912C0330912D03C01AD10AAA
:10020000E20AF30A00913C0310913D0330E020E044
:100210000C151D052E053F0550F462E070E01F919E
:100220000F91FF90EF90DF90CF900C948C006111B4
:10023000B1CF63E070E0F3CF70E060E0F0CFAF9259
:10024000BF92CF92DF92EF92FF920F931F93CF93C3
:10025000DF936C017B018B01040F151FEB015E0125
:10026000AE18BF08C017D10759F06991D601ED91BA
:10027000FC910190F081E02DC6010995892B79F759
:10028000C501DF91CF911F910F91FF90EF90DF900B
:10029000CF90BF90AF900895FC01538D448D252FD2
:1002A00030E0842F90E0821B930B541710F0CF9610
:1002B000089501970895FC01918D828D981761F042
:1002C000A28DAE0FBF2FB11D5D968C91928D9F5F59
:1002D0009F73928F90E008958FEF9FEF0895FC0138
:1002E000918D828D981731F0828DE80FF11D858DEB
:1002F00090E008958FEF9FEF0895FC01918D228D7E
:10030000892F90E0805C9F4F821B91098F73992702
:10031000089589E292E00E947D0121E0892B09F491
:1003200020E0822F089580E090E0892B29F00E9440
:10033000890181110C9400000895FC01A48DA80F7F
:10034000B92FB11DA35ABF4F2C91848D90E0019617
:100350008F739927848FA689B7892C93A089B18937
:100360008C91837080648C93938D848D981306C0D8
:100370000288F389E02D80818F7D80830895EF923C
:10038000FF920F931F93CF93DF93EC0181E0888F4F
:100390009B8D8C8D98131AC0E889F989808185FF1F
:1003A00015C09FB7F894EE89FF896083E889F989C1
:1003B00080818370806480839FBF81E090E0DF91C3
:1003C000CF911F910F91FF90EF900895F62E0B8D16
:1003D00010E00F5F1F4F0F731127E02E8C8D8E11D1
:1003E0000CC00FB607FCFACFE889F989808185FF38
:1003F000F5CFCE010E949D01F1CFEB8DEC0FFD2FCB
:10040000F11DE35AFF4FF0829FB7F8940B8FEA89F2
:10041000FB8980818062CFCFCF93DF93EC01888D01
:100420008823B9F0AA89BB89E889F9898C9185FD6F
:1004300003C0808186FD0DC00FB607FCF7CF8C91FD
:1004400085FFF2CF808185FFEDCFCE010E949D0117
:10045000E9CFDF91CF910895833081F028F4813086
:1004600099F08230A9F008958730A9F08830C9F05A
:100470008430B1F4809180008F7D03C08091800032
:100480008F7780938000089584B58F7784BD089519
:1004900084B58F7DFBCF8091B0008F778093B000C3
:1004A00008958091B0008F7DF9CFCF93DF93282FEF
:1004B00030E0F901E458FF4F8491F901E656FF4F0F
:1004C000D491F901E255FF4FC491CC23A1F08111E1
:1004D0000E942C02EC2FF0E0EE0FFF1FEE58FF4FB2
:1004E000A591B491EC91ED2381E090E009F480E0D6
:1004F000DF91CF91089580E090E0FACF862F0C94A1
:1005000055021F93CF93DF93282F30E0F901E45871
:10051000FF4F8491F901E656FF4FD491F901E2555E
:10052000FF4FC491CC23A9F0162F81110E942C02F9
:10053000EC2FF0E0EE0FFF1FE859FF4FA591B491AB
:100540008FB7F894EC91111108C0D095DE23DC939D
:100550008FBFDF91CF911F910895DE2BF8CF862FAB
:10056000642F0C948102CF93DF9390E0FC01E65658
:10057000FF4F249182559F4FFC0184918823C9F03D
:1005800090E0880F991FFC01E057FF4FA591B491AF
:10059000FC01E859FF4FC591D49161110DC09FB77F
:1005A000F8948C91209582238C938881282328832A
:1005B0009FBFDF91CF910895623051F49FB7F894B7
:1005C0003C91822F809583238C93E8812E2BEFCF53
:1005D0008FB7F894EC912E2B2C938FBFEACF862FF8
:1005E000642F0C94B3026F927F928F929F92AF927E
:1005F000BF92CF92DF92EF92FF920F931F93CF9310
:10060000DF9381E080933E038FB7F89440912502F9
:100610005091260260912702709128028FBF80912D
:100620002E0390912F03A0913003B0913103481B0A
:10063000590B6A0B7B0B80913A0390913B03B0E01E
:10064000A0E084179507A607B70708F01DC1C0E012
:1006500080913803C81760F4E0913403F0913503BA
:10066000EC0FF11D62E080810E94B302CF5FF0CFFA
:10067000712C812C912C540183948091390378162C
:1006800008F05FC0072D10E0E0913603F0913703CA
:10069000E00FF11F61E080810E94B302E091360318
:1006A000F0913703E00FF11F60E080810E9481022A
:1006B000D501C401072C04C0880F991FAA1FBB1FB6
:1006C0000A94D2F76C017C01E094F094612C809143
:1006D00038036816F8F4C62DD0E0E0913403F091A9
:1006E0003503EC0FFD1F80810E9455022496CC0F2C
:1006F000DD1FCE52DD4F892B41F4888199818C29F1
:100700009D29998388836394E2CF888199818E2182
:100710009F21F7CFE0913603F0913703E00FF11FEF
:1007200061E080810E9481028091360390913703BD
:10073000080F191F60E0F80180810E94B3027394D2
:100740009CCFC2EDD2E0FE018FEF9FEF278D30A14D
:10075000232B21F4148E968F858F11A2369623E0D9
:10076000EE30F20799F7F12C96E0D92E80913803FC
:10077000F81608F050C0E12C0F2D10E0000F111FEB
:1007800006521D4F20913903E21608F042C0F801CD
:10079000608171810E2C02C0769567950A94E2F70C
:1007A000F29E900111242E0D311DE2EDF2E080E069
:1007B000458D568D2417350709F46AC08F5F36962C
:1007C0008A30B1F760FF23C0E2EDF2E090E080E014
:1007D000448D411117C0E0913203F0913303E20FD1
:1007E000F31F4081D89EF001D99EF00D1124EE52E6
:1007F000FD4F448F368F258F10A2178E61E00E9427
:10080000AF0005C0019636968A30910509F7E3944A
:10081000B9CFF394ABCF80E099A19111892F26969F
:10082000F3E0CE30DF07C1F79FB7F894409125027F
:100830005091260260912702709128029FBF409339
:100840002E0350932F03609330037093310388235A
:10085000D9F08091F3028823B9F08091F102909150
:10086000F202019789F48091EE02DF91CF911F91FE
:100870000F91FF90EF90DF90CF90BF90AF909F903F
:100880008F907F906F90089510923E0380E0EDCF9F
:100890006170B5CF3FB7F89480911E0290911F020E
:1008A000A0912002B091210226B5A89B05C02F3F40
:1008B00019F00196A11DB11D3FBFBA2FA92F982F86
:1008C0008827BC01CD01620F711D811D911D42E081
:1008D000660F771F881F991F4A95D1F708958F9249
:1008E0009F92AF92BF92CF92DF92EF92FF924B0115
:1008F0005C010E944A046B017C010E944A046C194D
:100900007D098E099F09683E734081059105A8F312
:1009100021E0821A9108A108B10888EEC80E83E090
:10092000D81EE11CF11C81149104A104B10429F723
:10093000FF90EF90DF90CF90BF90AF909F908F90FF
:10094000089508951F93CF93DF93C1E0C093B20140
:10095000882399F1D091B8001091BA008091BC0021
:100960008A7B8093BC0060E082E10E94810260E0AB
:1009700083E10E9481021092F701C093F901109265
:10098000F80161E082E10E94810261E083E10E945E
:1009900081028091B9008E7F8093B9008091B90067
:1009A0008D7F8093B90088E48093B80085E48093BC
:1009B000BC001093BA00D093B800DF91CF911F9183
:1009C00008952091D301260F3327331F213231059B
:1009D000ECF42091F701FC0190E080E0243069F014
:1009E00082E00895A091D3012191AC014D545E4F56
:1009F000A40FB52FB11D2C930196861798F3809103
:100A0000D301680F6093D30180E0089581E00895D9
:100A100008958FEF9FEF08958FEF9FEF08958091D6
:100A2000AC0190E09195819591090895CF92DF9264
:100A3000EF92FF920F931F93CF93DF937C01CB0133
:100A40008A012091AB01222389F0EB016B01C40ED6
:100A5000D51ECC15DD0569F06991D701ED91FC91AA
:100A60000190F081E02DC7010995F3CF642F0E941A
:100A7000E104C801DF91CF911F910F91FF90EF909A
:100A8000DF90CF900895CF93DF931F92CDB7DEB75D
:100A900069832091AB012223F9F02091AA01203231
:100AA00058F021E030E0FC013383228390E080E0C5
:100AB0000F90DF91CF9108958091A901E82FF0E088
:100AC000E757FE4F998190838F5F8093A9018093B0
:100AD000AA0181E090E0ECCF61E0CE0101960E9496
:100AE000E104F7CFCF92DF92EF92FF920F931F9323
:100AF000CF93DF93FC01C48121E02093AB01C0932D
:100B000088011092A9011092AA018385682B86ECB6
:100B100092E00E944305D091AA01D13208F092C020
:100B20000E944A046B017C018091F701811165C02C
:100B300082E08093F70181E08093F9018FEF809349
:100B4000F60110921B02D0931A02A9E8B1E0EAEF75
:100B5000F1E080E0D81385C010921C0280911C0245
:100B6000CC0FC82BC0931C028091F801813009F092
:100B70007CC01092F8010E944A046B017C018091B4
:100B80001C028093BB008091AE019091AF01A091B7
:100B9000B001B091B101892B8A2B8B2B99F00E9467
:100BA0004A040091AE011091AF012091B001309143
:100BB000B1016C197D098E099F09061717072807CF
:100BC0003907E0F18091BC0083FDD9CF85EC80939B
:100BD000BC000E944A046B017C018091F7018230C5
:100BE00009F445C08091F6018F3F61F18091F601D3
:100BF000803241F18091F60125C08091AE01909143
:100C0000AF01A091B001B091B101892B8A2B8B2B40
:100C100009F48ACF0E944A040091AE011091AF01FD
:100C20002091B0013091B1016C197D098E099F09A5
:100C3000061717072807390708F076CF8091AD010E
:100C40000E94A2041092A9011092AA011092AB0175
:100C5000DF91CF911F910F91FF90EF90DF90CF9098
:100C600008959D9191938F5F75CF85EEB0CF809160
:100C7000AE019091AF01A091B001B091B101892B6B
:100C80008A2B8B2B09F4A9CF0E944A040091AE0154
:100C90001091AF012091B0013091B1016C197D0923
:100CA0008E099F09061717072807390708F095CFFF
:100CB000C5CF089590E080E00895FC0101900020E8
:100CC000E9F73197AF01481B590BBC0189E292E06B
:100CD0000C941F01CF93DF930E945D06EC0186E523
:100CE00091E00E945D068C0F9D1FDF91CF910895CA
:100CF00089E591E00E946A0683B78E7F83BFE898FA
:100D000081EA94E0909301018093000108950F938C
:100D10001F93CF938C01C62F0E9472056C2F6460C5
:100D2000C8010E9472056C2F6B7FC8010E9472057A
:100D300083EC90E00197F1F7CF911F910F91089507
:100D40000F931F93CF93DF938C01D62FC42F607F17
:100D5000642B0E94870680E1D89FB00111246C2B80
:100D6000C801DF91CF911F910F910C94870641E04C
:100D70000E94A00681E090E0089585ED8093BC007C
:100D80008091AE019091AF01A091B001B091B101FD
:100D90000796A11DB11D23E0B695A7959795879558
:100DA0002A95D1F72091BC0024FD03C01092F701D1
:100DB00008954091AE015091AF016091B0017091E2
:100DC000B101452B462B472B69F30097A105B105CF
:100DD00041F025E32A95F1F700000197A109B10937
:100DE000E1CF8091AD010C94A2041F920F920FB637
:100DF0000F9211242F933F934F935F936F937F93A1
:100E00008F939F93AF93BF93EF93FF9389E292E009
:100E10000E949D01FF91EF91BF91AF919F918F91A2
:100E20007F916F915F914F913F912F910F900FBEE6
:100E30000F901F9018951F920F920FB60F921124CA
:100E40002F938F939F93EF93FF93E0913902F0914B
:100E50003A028081E0913F02F091400282FD1BC086
:100E60009081809142028F5F8F732091430282179D
:100E700041F0E0914202F0E0E75DFD4F958F8093F5
:100E80004202FF91EF919F918F912F910F900FBE92
:100E90000F901F9018958081F4CF1F920F920FB67C
:100EA0000F9211242F933F938F939F93AF93BF93F0
:100EB0008091250290912602A0912702B0912802EC
:100EC00030911D0223E0230F2D3758F50196A11D07
:100ED000B11D20931D028093250290932602A093BA
:100EE0002702B093280280911E0290911F02A091C8
:100EF0002002B09121020196A11DB11D80931E0216
:100F000090931F02A0932002B0932102BF91AF9152
:100F10009F918F913F912F910F900FBE0F901F9037
:100F2000189526E8230F0296A11DB11DD2CF1F925E
:100F30000F920FB60F9211242F933F934F935F930D
:100F40006F937F938F939F93AF93BF93EF93FF9391
:100F5000E0910201F09103010995FF91EF91BF919A
:100F6000AF919F918F917F916F915F914F913F9141
:100F70002F910F900FBE0F901F9018951F920F92F8
:100F80000FB60F9211242F933F934F935F936F935C
:100F90007F938F939F93AF93BF93EF93FF93E091D2
:100FA0000001F09101010995FF91EF91BF91AF917F
:100FB0009F918F917F916F915F914F913F912F9171
:100FC0000F900FBE0F901F9018951F920F920FB6A3
:100FD0000F9211242F933F934F935F936F937F93BF
:100FE0008F939F93AF93BF93EF93FF938091B9003B
:100FF000887F803609F44AC0F0F5883209F4A5C02C
:1010000018F5803109F499C0B8F4882309F4F5C0C3
:10101000883009F492C0FF91EF91BF91AF919F91F9
:101020008F917F916F915F914F913F912F910F9091
:101030000FBE0F901F901895883109F486C080323A
:1010400051F78093F60114C0803409F49BC040F43A
:101050008033B9F38833F9F68093F60185ECAEC09E
:10106000803509F483C0883509F494C0883499F632
:101070000E94BD06D0CF883909F48AC038F5883778
:1010800029F050F4883611F0803729F683E08093F8
:10109000F7011092F50155C0883809F479C08039FC
:1010A00019F0803809F0B7CF8091F501803208F04F
:1010B0006FC0E091F50181E08E0F8093F501809182
:1010C000BB00F0E0EB52FE4F80833BC0803B39F029
:1010D000D0F4803A09F477C0883A09F09CCF84E0D4
:1010E0008093F7011092D4011092D301F0E0E0E078
:1010F00009958091D30181110FC081E08093D301C4
:101100001092B30109C0803C09F4A8CF883C09F4CF
:10111000A5CF883B09F07FCFE091D40181E08E0F0D
:101120008093D401F0E0ED54FE4F80818093BB00AA
:101130009091D4018091D30129C080911C028093A9
:10114000BB0085EC8093BC0066CF90911B02809120
:101150001A02981758F5E0911B0281E08E0F8093D8
:101160001B02F0E0E650FE4F8081E9CFE0911B02C8
:1011700081E08E0F80931B028091BB00F0E0E6506F
:10118000FE4F808390911B0280911A029817C8F23B
:1011900085E8D8CFE0911B0281E08E0F80931B027F
:1011A0008091BB00F0E0E650FE4F80838091F90112
:1011B00081115ECF81E08093F80184EA8093BC00C6
:1011C0001092F70128CF85EC8093BC001092F701B4
:1011D0008091F501803230F4E091F501F0E0EB52BE
:1011E000FE4F10826091F50170E085ED91E0F0E036
:1011F000E0E009951092F5010ECF1092F60138CF7C
:1012000010922C0210922B0288EE93E0A0E0B0E046
:1012100080932D0290932E02A0932F02B093300260
:1012200020E131E030932A022093290225EC30E0BE
:10123000309336022093350224EC30E030933802AC
:101240002093370220EC30E030933A0220933902A9
:1012500021EC30E030933C0220933B0222EC30E062
:1012600030933E0220933D0226EC30E03093400262
:1012700020933F02109242021092430210924402C5
:10128000109245021092C9021092C8028093CA02BD
:101290009093CB02A093CC02B093CD0282E291E076
:1012A0009093C7028093C6021092440310924303A6
:1012B0008EE391E0909342038093410387E2809311
:1012C000450385E180934A0384E080934B031092A9
:1012D0004C031092D4021092D8021092D7021092AE
:1012E000D90284E391E09093D3028093D202EEEE90
:1012F000F2E01082148213821582369683E0EA327D
:10130000F807B9F788E091E09093350380933403B0
:1013100084E091E0909337038093360384E08093D8
:1013200038038093390386E491E0909333038093EC
:1013300032038AE090E090933B0380933A0384EF7A
:1013400091E090933D0380933C03109240031092F0
:101350003F0310922E0310922F031092300310922D
:10136000310310923E030895CF93DF93CDB7DEB7DC
:10137000A1970FB6F894DEBF0FBECDBF789484B5A9
:10138000826084BD84B5816084BD85B5826085BD81
:1013900085B5816085BD80916E00816080936E000F
:1013A0001092810080918100826080938100809101
:1013B00081008160809381008091800081608093B2
:1013C00080008091B10084608093B1008091B00072
:1013D00081608093B00080917A00846080937A006D
:1013E00080917A00826080937A0080917A00816097
:1013F00080937A0080917A00806880937A001092BE
:10140000C100E0913902F0913A0252E0F52EF082EB
:10141000E0913502F09136021082E0913702F091AE
:1014200038028FEC808310924102E0913D02F091EE
:101430003E0286E08083E0913B02F0913C02808195
:1014400080618083E0913B02F0913C028081886062
:101450008083E0913B02F0913C0280818068808330
:10146000E0913B02F0913C0280818F7D80838091EE
:10147000460388608093460364E0E62EE0924903C9
:1014800062E370E080E090E00E946F0460914C03A2
:1014900081E493E00E94720568EE73E080E090E0E2
:1014A0000E946F0460E381E493E00E9487060BE4EE
:1014B00016E4C8010197F1F760E381E493E00E942C
:1014C0008706C8010197F1F760E381E493E00E9489
:1014D000870683E592E00197F1F760E281E493E00B
:1014E0000E94870660914603606240E081E493E0D9
:1014F0000E94A006E092470340E06CE081E493E0A4
:101500000E94A00640E061E081E493E00E94A00612
:101510000BE31FE1C8010197F1F7F092480340E0A7
:1015200066E081E493E00E94A00640E062E081E48E
:1015300093E00E94A006C8010197F1F762E082E003
:101540000E94B3021FB7F89480912202811127C034
:10155000E8EBF0E08491E4EAF0E09491E82FF0E029
:10156000EE0FFF1FE057FF4FA591B491EC91E923D7
:1015700021F461E08AE00E94810261E08AE00E9439
:10158000B3028CB580618CBD8CB580648CBD61E08C
:101590008DE00E94B30261E08BE00E94B302809173
:1015A00022028F5F809322021FBF8CB58C7F8160E7
:1015B0008CBD8DB581608DBD61E08AE00E948102A5
:1015C0008BE3E82E8FE1F82E9AE0492E512C612C06
:1015D000712C20E0C22E20E0D22E38E7232E36E0F8
:1015E000332E86E691E00E946A060E94F30240E0F4
:1015F00061E081E493E00E94A006C7010197F1F742
:1016000040E060E881E493E00E94A00660E08AE0A8
:101610000E948102109224021092230280912302E0
:1016200090912402883E23E092070CF044C04C01C4
:10163000092E000CAA08BB0897FF53C06DE289E28F
:1016400092E00E94BF0122273327A90128193909F6
:101650004A095B0919A28E010F5D1F4FCA01B9012A
:10166000A30192010E94C40B605DF80162938F0197
:10167000211531054105510589F70115110519F0AD
:10168000C8010E945D0686E591E00E945D060E9409
:10169000F302182F682F89E292E00E94BF0186E5CD
:1016A00091E00E945D06112391F11EBD00000DB472
:1016B00007FEFDCF8EB561E08AE00E9481026AE0FC
:1016C00070E080E090E00E946F04C114D10409F43E
:1016D00088CF0E948901882309F483CF0E940000EB
:1016E00080CFA501940119A28E010F5D1F4FCA0181
:1016F000B901A30192010E94C40B605DF8016293DD
:101700008F01211531054105510589F7B6CF80912B
:10171000230290912402873E934061F583B7816054
:1017200083BF8AE691E00E946A0685E791E00E9405
:101730006A063092010120920001809169008C7F3D
:1017400080936900E89A83B7817F846083BF60E0FB
:101750008DE00E94810268EE73E080E090E00E94DC
:101760006F04889589E791E00E946A0661E08DE048
:101770000E9481028091230290912402019690930D
:101780002402809323024ACFA1E21A2EAA1BBB1B7C
:10179000FD010DC0AA1FBB1FEE1FFF1FA217B3073D
:1017A000E407F50720F0A21BB30BE40BF50B661F53
:1017B000771F881F991F1A9469F760957095809517
:1017C00090959B01AC01BD01CF010895EE0FFF1F65
:0C17D0000590F491E02D0994F894FFCFEF
:1017DC00A104A10405040302090807060000000087
:1017EC00BF011F014C010C027D015B016F01000068
:1017FC000000430516055A0608050F050C050905DA
:10180C0000000000EF02AF027E0200000000B706ED
:10181C001F015A06590631323341343536423738B6
:10182C0039432A3023440D0A0057616B65205570EB
:10183C00204D6F64650074657300536C6565702092
:10184C004D6F6465005A7A7A004869212049276DEA
:08185C00204177616B6500007B
:00000001FF
