:100000000C9462000C942B080C9404080C948A0045
:100010000C948A000C948A000C948A000C948A0038
:100020000C948A000C948A000C948A000C948A0028
:100030000C948A000C948A000C948A000C948A0018
:100040000C94BA070C948A000C9488070C946207ED
:100050000C948A000C948A000C948A000C948A00F8
:100060000C9452080C948A0000000000250028001F
:100070002B000000000023002600290000000008DB
:10008000000201000003040700000000000000005F
:1000900000000000240027002A00010204081020AC
:1000A000408001020408102001020408102004040A
:1000B0000404040404040202020202020303030310
:1000C00003036D0911241FBECFEFD8E0DEBFCDBF03
:1000D00011E0A0E0B1E0EAE3F8E102C005900D9282
:1000E000A63AB107D9F723E0A6EAB1E001C01D9214
:1000F000AF36B207E1F710E0C2E6D0E004C02197C6
:10010000FE010E94150CC136D107C9F70E94210AD1
:100110000C941B0C0C94000096E0899FD0011124D4
:10012000AC50BD4F90967C936E935F9791E0919603
:100130009C939197E0916103F09162039091600329
:10014000992339F0309751F0811108C08091100344
:100150000994309719F05C968C91FACF0895AF927C
:10016000BF92CF92DF92EF92FF920F931F93CF93A4
:10017000DF936C017B018B01040F151FEB015E0106
:10018000AE18BF08C017D10759F06991D601ED919B
:10019000FC910190F081E02DC6010995892B79F73A
:1001A000C501DF91CF911F910F91FF90EF90DF90EC
:1001B000CF90BF90AF900895FC01538D448D252FB3
:1001C00030E0842F90E0821B930B541710F0CF96F1
:1001D000089501970895FC01918D828D981761F023
:1001E000A28DAE0FBF2FB11D5D968C91928D9F5F3A
:1001F0009F73928F90E008958FEF9FEF0895FC0119
:10020000918D828D981731F0828DE80FF11D858DCB
:1002100090E008958FEF9FEF0895FC01918D228D5E
:10022000892F90E0805C9F4F821B91098F739927E3
:1002300008958BE492E00E940D0121E0892B09F4DE
:1002400020E0822F089580E090E0892B29F00E9421
:10025000190181110C9400000895FC01A48DA80FD0
:10026000B92FB11DA35ABF4F2C91848D90E00196F8
:100270008F739927848FA689B7892C93A089B18918
:100280008C91837080648C93938D848D981306C0B9
:100290000288F389E02D80818F7D80830895EF921D
:1002A000FF920F931F93CF93DF93EC0181E0888F30
:1002B0009B8D8C8D98131AC0E889F989808185FF00
:1002C00015C09FB7F894EE89FF896083E889F989A2
:1002D00080818370806480839FBF81E090E0DF91A4
:1002E000CF911F910F91FF90EF900895F62E0B8DF7
:1002F00010E00F5F1F4F0F731127E02E8C8D8E11B2
:100300000CC00FB607FCFACFE889F989808185FF18
:10031000F5CFCE010E942D01F1CFEB8DEC0FFD2F1B
:10032000F11DE35AFF4FF0829FB7F8940B8FEA89D3
:10033000FB8980818062CFCFCF93DF93EC01888DE2
:100340008823B9F0AA89BB89E889F9898C9185FD50
:1003500003C0808186FD0DC00FB607FCF7CF8C91DE
:1003600085FFF2CF808185FFEDCFCE010E942D0168
:10037000E9CFDF91CF910895833081F028F4813067
:1003800099F08230A9F008958730A9F08830C9F03B
:100390008430B1F4809180008F7D03C08091800013
:1003A0008F7780938000089584B58F7784BD0895FA
:1003B00084B58F7DFBCF8091B0008F778093B000A4
:1003C00008958091B0008F7DF9CFCF93DF93282FD0
:1003D00030E0F901E458FF4F8491F901E656FF4FF0
:1003E000D491F901E255FF4FC491CC23A1F08111C2
:1003F0000E94BC01EC2FF0E0EE0FFF1FEE58FF4F04
:10040000A591B491EC91ED2381E090E009F480E0B6
:10041000DF91CF91089580E090E0FACF862F0C9481
:10042000E5011F93CF93DF93282F30E0F901E458C3
:10043000FF4F8491F901E656FF4FD491F901E2553F
:10044000FF4FC491CC23A9F0162F81110E94BC014B
:10045000EC2FF0E0EE0FFF1FE859FF4FA591B4918C
:100460008FB7F894EC91111108C0D095DE23DC937E
:100470008FBFDF91CF911F910895DE2BF8CF862F8C
:10048000642F0C941102CF93DF9390E0FC01E656A9
:10049000FF4F249182559F4FFC0184918823C9F01E
:1004A00090E0880F991FFC01E057FF4FA591B49190
:1004B000FC01E859FF4FC591D49161110DC09FB760
:1004C000F8948C91209582238C938881282328830B
:1004D0009FBFDF91CF910895623051F49FB7F89498
:1004E0003C91822F809583238C93E8812E2BEFCF34
:1004F0008FB7F894EC912E2B2C938FBFEACF862FD9
:10050000642F0C9443023FB7F8948091400290917D
:100510004102A0914202B091430226B5A89B05C0BA
:100520002F3F19F00196A11DB11D3FBFBA2FA92F72
:10053000982F8827BC01CD01620F711D811D911D6F
:1005400042E0660F771F881F991F4A95D1F70895DB
:100550008F929F92AF92BF92CF92DF92EF92FF92D3
:100560004B015C010E9483026B017C010E948302AB
:100570006C197D098E099F09683E734081059105BC
:10058000A8F321E0821A9108A108B10888EEC80EEC
:1005900083E0D81EE11CF11C81149104A104B10474
:1005A00029F7FF90EF90DF90CF90BF90AF909F9092
:1005B0008F9008952FB7F89460913C0270913D029E
:1005C00080913E0290913F022FBF08950F931F9399
:1005D000CF93DF93C82FD62F86E0C89FF001112458
:1005E000EC50FD4F11A2878D90A181309105F1F063
:1005F00058F082309105F1F1039709F440C0DF9182
:10060000CF911F910F9108956623C9F361E070E0C7
:100610008C2F0E948C000E94DA0260934C0370932E
:100620004D0380934E0390934F03E9CF0E94DA026B
:1006300000914C0310914D0320914E0330914F03D4
:10064000AB01BC01401B510B620B730B80915E032D
:1006500090915F03B0E0A0E084179507A607B70765
:1006600048F462E070E08C2FDF91CF911F910F91E1
:100670000C948C0063E070E0D111C1CFF4CF70E036
:1006800060E0F1CF6F927F928F929F92AF92BF9274
:10069000CF92DF92EF92FF920F931F93CF93DF934E
:1006A00081E0809360030E94DA0200915003109170
:1006B00051032091520330915303AB01BC01401B05
:1006C000510B620B730B80915C0390915D03B0E062
:1006D000A0E084179507A607B70708F014C1C0E08B
:1006E00080915A03C81760F4E0915603F0915703C4
:1006F000EC0FF11D62E080810E944302CF5FF0CFDA
:10070000712C812C912C5401839480915B03781679
:1007100008F05FC0072D10E0E0915803F0915903F5
:10072000E00FF11F61E080810E944302E0915803D5
:10073000F0915903E00FF11F60E080810E941102E7
:10074000D501C401072C04C0880F991FAA1FBB1F25
:100750000A94D2F76C017C01E094F094612C8091B2
:100760005A036816F8F4C62DD0E0E0915603F091D4
:100770005703EC0FFD1F80810E94E5012496CC0FEA
:10078000DD1FCC50DD4F892B41F4888199818C2964
:100790009D29998388836394E2CF888199818E21F2
:1007A0009F21F7CFE0915803F0915903E00FF11F1B
:1007B00061E080810E941102809158039091590359
:1007C000080F191F60E0F80180810E9443027394B2
:1007D0009CCFC4EFD2E0FE018FEF9FEF278D30A1B9
:1007E000232B21F4148E968F858F11A2369623E049
:1007F000E033F20799F7F12C96E0D92E80915A0355
:10080000F81608F050C0E12C0F2D10E0000F111F5A
:1008100004501D4F20915B03E21608F042C0F8011E
:10082000608171810E2C02C0769567950A94E2F77B
:10083000F29E900111242E0D311DE4EFF2E080E0D4
:10084000458D568D2417350709F461C08F5F3696A4
:100850008A30B1F760FF23C0E4EFF2E090E080E07F
:10086000448D411117C0E0915403F0915503E20FFC
:10087000F31F4081D89EF001D99EF00D1124EC5059
:10088000FD4F448F368F258F10A2178E61E00E9496
:10089000E60205C0019636968A30910509F7E39481
:1008A000B9CFF394ABCF10E089A18111182F269610
:1008B000F3E0C033DF07C1F70E94DA026093500310
:1008C0007093510380935203909353031123D9F0F3
:1008D000809115038823B9F080911303909114033C
:1008E000019789F480911003DF91CF911F910F91AF
:1008F000FF90EF90DF90CF90BF90AF909F908F9040
:100900007F906F9008951092600380E0EDCF61704A
:10091000BECF08951F93CF93DF93C1E0C093D00162
:10092000882399F1D091B8001091BA008091BC0051
:100930008A7B8093BC0060E082E10E94110260E04B
:1009400083E10E94110210921502C09317021092C7
:10095000160261E082E10E94110261E083E10E94DF
:1009600011028091B9008E7F8093B9008091B90007
:100970008D7F8093B90088E48093B80085E48093EC
:10098000BC001093BA00D093B800DF91CF911F91B3
:1009900008952091F101260F3327331F21323105AD
:1009A000ECF420911502FC0190E080E0243069F025
:1009B00082E00895A091F1012191AC014F525E4F68
:1009C000A40FB52FB11D2C930196861798F3809133
:1009D000F101680F6093F10180E0089581E00895CE
:1009E00008958FEF9FEF08958FEF9FEF0895809107
:1009F000CA0190E09195819591090895CF92DF9277
:100A0000EF92FF920F931F93CF93DF937C01CB0163
:100A10008A012091C901222389F0EB016B01C40EE8
:100A2000D51ECC15DD0569F06991D701ED91FC91DA
:100A30000190F081E02DC7010995F3CF642F0E944A
:100A4000C904C801DF91CF911F910F91FF90EF90E2
:100A5000DF90CF900895CF93DF931F92CDB7DEB78D
:100A600069832091C9012223F9F02091C801203225
:100A700058F021E030E0FC013383228390E080E0F5
:100A80000F90DF91CF9108958091C701E82FF0E09A
:100A9000E955FE4F998190838F5F8093C7018093C2
:100AA000C80181E090E0ECCF61E0CE0101960E94A8
:100AB000C904F7CFCF92DF92EF92FF920F931F936B
:100AC000CF93DF93FC01C48121E02093C901C0933F
:100AD000A6011092C7011092C8018385682B88EE89
:100AE00092E00E942B05D091C801D13208F092C04B
:100AF0000E9483026B017C0180911502811165C007
:100B000082E08093150281E0809317028FEF80933B
:100B1000140210923902D0933802A7EAB1E0E8E15A
:100B2000F2E080E0D81385C010923A0280913A0238
:100B3000CC0FC82BC0933A0280911602813009F085
:100B40007CC0109216020E9483026B017C0180918E
:100B50003A028093BB008091CC019091CD01A0918D
:100B6000CE01B091CF01892B8A2B8B2B99F00E945B
:100B700083020091CC011091CD012091CE013091E2
:100B8000CF016C197D098E099F09061717072807E1
:100B90003907E0F18091BC0083FDD9CF85EC8093CB
:100BA000BC000E9483026B017C018091150282309F
:100BB00009F445C0809114028F3F61F180911402C5
:100BC000803241F18091140225C08091CC01909136
:100BD000CD01A091CE01B091CF01892B8A2B8B2B17
:100BE00009F48ACF0E9483020091CC011091CD01BB
:100BF0002091CE013091CF016C197D098E099F099A
:100C0000061717072807390708F076CF8091CB0120
:100C10000E948A041092C7011092C8011092C90163
:100C2000DF91CF911F910F91FF90EF90DF90CF90C8
:100C300008959D9191938F5F75CF85EEB0CF809190
:100C4000CC019091CD01A091CE01B091CF01892B23
:100C50008A2B8B2B09F4A9CF0E9483020091CC012F
:100C60001091CD012091CE013091CF016C197D09F9
:100C70008E099F09061717072807390708F095CF2F
:100C8000C5CF089590E080E00895FC010190002018
:100C9000E9F73197AF01481B590BBC018BE492E097
:100CA0000C94AF00CF93DF930E944506EC0186E5DC
:100CB00091E00E9445068C0F9D1FDF91CF91089512
:100CC00089E591E00E94520683B78E7F83BFE89842
:100CD00089E894E0909301018093000108958F9238
:100CE0009F92AF92BF92CF92DF92EF92FF920F93BB
:100CF0001F93CF93DF93CDB7DEB7A1970FB6F894CC
:100D0000DEBF0FBECDBF6C01990FEE08FF08F7FEE6
:100D100047C06DE28BE492E00E944F018C012227D4
:100D20003327A9012C193D094E095F0919A2CE01EB
:100D300081967C019AE0892E912CA12CB12CCA01BC
:100D4000B901A50194010E94F30B605DF701629364
:100D50007F01211531054105510589F790E080E0BB
:100D6000309719F0CF010E944506080F191F86E53C
:100D700091E00E944506800F911FA1960FB6F8944E
:100D8000DEBF0FBECDBFDF91CF911F910F91FF90BE
:100D9000EF90DF90CF90BF90AF909F908F9008958D
:100DA000A701960119A28E010F5D1F4F8AE0C82E80
:100DB000D12CE12CF12CCA01B901A70196010E94A6
:100DC000F30B605DF80162938F0121153105410538
:100DD000510589F7309729F0CF010E9445068C0113
:100DE000C6CF10E000E0C3CF0F931F93CF938C01C9
:100DF000C62F0E945A056C2F6460C8010E945A05D4
:100E00006C2F6B7FC8010E945A0583EC90E001971C
:100E1000F1F7CF911F910F9108950F931F93CF93E7
:100E2000DF938C01D62FC42F607F642B0E94F406C1
:100E300080E1D89FB00111246C2BC801DF91CF91C4
:100E40001F910F910C94F40641E00E940D0781E080
:100E500090E0089585ED8093BC008091CC01909145
:100E6000CD01A091CE01B091CF010796A11DB11D7A
:100E700023E0B695A795979587952A95D1F7209168
:100E8000BC0024FD03C01092150208954091CC01CE
:100E90005091CD016091CE017091CF01452B462B31
:100EA000472B69F30097A105B10541F025E32A9589
:100EB000F1F700000197A109B109E1CF8091CB01C1
:100EC0000C948A041F920F920FB60F9211242F9345
:100ED0003F934F935F936F937F938F939F93AF93C2
:100EE000BF93EF93FF938BE492E00E942D01FF915B
:100EF000EF91BF91AF919F918F917F916F915F9192
:100F00004F913F912F910F900FBE0F901F9018950A
:100F10001F920F920FB60F9211242F938F939F93CE
:100F2000EF93FF93E0915B02F0915C028081E0918E
:100F30006102F091620282FD1BC090818091640287
:100F40008F5F8F7320916502821741F0E0916402F8
:100F5000F0E0E55BFD4F958F80936402FF91EF9188
:100F60009F918F912F910F900FBE0F901F9018950A
:100F70008081F4CF1F920F920FB60F9211242F93FE
:100F80003F938F939F93AF93BF9380913C02909137
:100F90003D02A0913E02B0913F0230913B0223E01E
:100FA000230F2D3758F50196A11DB11D20933B024B
:100FB00080933C0290933D02A0933E02B0933F0287
:100FC0008091400290914102A0914202B09143026F
:100FD0000196A11DB11D8093400290934102A09300
:100FE0004202B0934302BF91AF919F918F913F9185
:100FF0002F910F900FBE0F901F90189526E8230F8A
:101000000296A11DB11DD2CF1F920F920FB60F9263
:1010100011242F933F934F935F936F937F938F93FD
:101020009F93AF93BF93EF93FF93E0910201F091F1
:1010300003010995FF91EF91BF91AF919F918F911E
:101040007F916F915F914F913F912F910F900FBEC4
:101050000F901F9018951F920F920FB60F921124A8
:101060002F933F934F935F936F937F938F939F93B0
:10107000AF93BF93EF93FF93E0910001F0910101D3
:101080000995FF91EF91BF91AF919F918F917F91C2
:101090006F915F914F913F912F910F900FBE0F90E5
:1010A0001F9018951F920F920FB60F9211242F9335
:1010B0003F934F935F936F937F938F939F93AF93E0
:1010C000BF93EF93FF938091B900887F803609F436
:1010D0004AC0F0F5883209F4A5C018F5803109F44A
:1010E00099C0B8F4882309F4F5C0883009F492C097
:1010F000FF91EF91BF91AF919F918F917F916F91F0
:101100005F914F913F912F910F900FBE0F901F90C5
:101110001895883109F486C0803251F78093140203
:1011200014C0803409F49BC040F48033B9F3883391
:10113000F9F68093140285ECAEC0803509F483C0C3
:10114000883509F494C0883499F60E942A07D0CFD4
:10115000883909F48AC038F5883729F050F4883680
:1011600011F0803729F683E0809315021092130264
:1011700055C0883809F479C0803919F0803809F0F1
:10118000B7CF80911302803208F06FC0E091130254
:1011900081E08E0F809313028091BB00F0E0ED5050
:1011A000FE4F80833BC0803B39F0D0F4803A09F495
:1011B00077C0883A09F09CCF84E0809315021092A2
:1011C000F2011092F101F0E0E0E009958091F10167
:1011D00081110FC081E08093F1011092D10109C00B
:1011E000803C09F4A8CF883C09F4A5CF883B09F0DE
:1011F0007FCFE091F20181E08E0F8093F201F0E069
:10120000EF52FE4F80818093BB009091F20180915C
:10121000F10129C080913A028093BB0085EC809354
:10122000BC0066CF9091390280913802981758F52A
:10123000E091390281E08E0F80933902F0E0E85EA0
:10124000FD4F8081E9CFE091390281E08E0F8093DC
:1012500039028091BB00F0E0E85EFD4F8083909101
:101260003902809138029817C8F285E8D8CFE0910A
:10127000390281E08E0F809339028091BB00F0E04B
:10128000E85EFD4F80838091170281115ECF81E07F
:101290008093160284EA8093BC001092150228CF36
:1012A00085EC8093BC00109215028091130280326D
:1012B00030F4E0911302F0E0ED50FE4F10826091A7
:1012C000130270E083EF91E0F0E0E0E00995109206
:1012D00013020ECF1092140238CF10924E021092C9
:1012E0004D0288EE93E0A0E0B0E080934F0290932F
:1012F0005002A0935102B093520220E131E03093AA
:101300004C0220934B0225EC30E03093580220939E
:10131000570224EC30E030935A022093590220EC1B
:1013200030E030935C0220935B0221EC30E030939C
:101330005E0220935D0222EC30E030936002209345
:101340005F0226EC30E0309362022093610210923B
:101350006402109265021092660210926702109267
:10136000EB021092EA028093EC029093ED02A093BC
:10137000EE02B093EF0282E291E09093E902809353
:10138000E80210926603109265038EE391E0909359
:1013900064038093630387E28093670385E180930E
:1013A0006C0384E080936D0310926E031092F6023A
:1013B0001092FA021092F9021092FB0284E391E07B
:1013C0009093F5028093F402E0E1F3E0108214823E
:1013D00013821582369683E0EC34F807B9F788E07B
:1013E00091E0909357038093560384E091E09093AB
:1013F00059038093580384E080935A0380935B03DE
:1014000086E491E090935503809354038AE090E042
:1014100090935D0380935C0384EF91E090935F036E
:1014200080935E0310926203109261031092500346
:1014300010925103109252031092530310926003C2
:101440000895789484B5826084BD84B5816084BD3C
:1014500085B5826085BD85B5816085BD80916E0052
:10146000816080936E001092810080918100826083
:1014700080938100809181008160809381008091C0
:1014800080008160809380008091B10084608093AF
:10149000B1008091B00081608093B00080917A00AB
:1014A000846080937A0080917A00826080937A00D1
:1014B00080917A00816080937A0080917A008068C0
:1014C00080937A001092C100E0915B02F0915C027F
:1014D00012E01083E0915702F09158021082E091DF
:1014E0005902F0915A028FEC808310926302E091CE
:1014F0005F02F091600286E08083E0915D02F091EE
:101500005E02808180618083E0915D02F0915E02E5
:10151000808188608083E0915D02F0915E0280812D
:1015200080688083E0915D02F0915E0280818F7D12
:1015300080838091680388608093680304E000934F
:101540006B0362E370E080E090E00E94A80260918B
:101550006E0383E693E00E945A0568EE73E080E034
:1015600090E00E94A80260E383E693E00E94F40604
:10157000CBE4D6E4CE010197F1F760E383E693E094
:101580000E94F4062197F1F760E383E693E00E945E
:10159000F40683E592E00197F1F760E283E693E0D9
:1015A0000E94F40660916803606240E083E693E085
:1015B0000E940D070093690340E06CE083E693E02E
:1015C0000E940D0740E061E083E693E00E940D0772
:1015D000CBE3DFE1CE010197F1F710936A0340E01E
:1015E00066E083E693E00E940D0740E062E083E658
:1015F00093E00E940D072197F1F762E082E00E94DC
:101600004302CFB7F89480914402811127C0E8EBE0
:10161000F0E08491E4EAF0E09491E82FF0E0EE0F3E
:10162000FF1FE057FF4FA591B491EC91E92321F4FE
:1016300061E08AE00E94110261E08AE00E944302B8
:101640008CB580618CBD8CB580648CBD61E08DE013
:101650000E94430261E08BE00E94430280914402B9
:101660008F5F80934402CFBF8CB58C7F81608CBD2F
:101670008DB581608DBD61E08AE00E941102CBE3EF
:10168000DFE100E010E080E6E82E86E0F82E0E9420
:10169000420340E061E083E693E00E940D07CE0143
:1016A0000197F1F740E060E883E693E00E940D07C0
:1016B00060E08AE00E9411020E94DA0270934A02FE
:1016C00060934902709348026093470286E691E076
:1016D0000E94520683E791E00E94450680914902EC
:1016E00090914A020E946F068FE791E00E944506A2
:1016F00080914702909148020E946F062091490212
:1017000030914A0212161306B4F480914702909168
:101710004802821B930B90934602809345020E94DD
:101720006F060E9442038823E1F08EBD00000DB4D5
:1017300007FEFDCF8EB561E08AE00E9411026AE0EB
:1017400070E080E090E00E94A8020115110509F404
:101750009ECF0E941901882309F499CF0E940000AE
:1017600096CF8091450290914602803D9740A4F12A
:1017700081E08EBD00000DB407FEFDCF8EB583B7AE
:10178000816083BF89E891E00E94520684E991E07C
:101790000E945206F0920101E092000180916900DE
:1017A0008C7F80936900E89A83B7817F846083BFD0
:1017B00060E08DE00E94110268EE73E080E090E04E
:1017C0000E94A802889588E991E00E94520661E093
:1017D0008DE00E941102AFCF0E94DA02709348029E
:1017E000609347028BCFA1E21A2EAA1BBB1BFD01FF
:1017F0000DC0AA1FBB1FEE1FFF1FA217B307E407F0
:10180000F50720F0A21BB30BE40BF50B661F771F47
:10181000881F991F1A9469F7609570958095909527
:101820009B01AC01BD01CF010895EE0FFF1F059094
:0A183000F491E02D0994F894FFCF25
:10183A00890489040504030009080706000000005A
:10184A004F01AF00DC009C010D01EB00FF0000001E
:10185A0000002B05FE044206F004F704F404F10428
:10186A00000000007F023F020E0200000000240771
:10187A00AF004206410631323341343536423738F9
:10188A0039432A3023440D0A0057616B652055708D
:10189A00204D6F6465004F757473696465204C6FE1
:1018AA006F700053746172742054696D653A004513
:1018BA006E642054696D653A00536C656570204DFD
:1018CA006F6465005A7A7A004869212049276D2099
:0618DA004177616B65001F
:00000001FF
