:100000000C9462000C9401050C94DA040C948A00A0
:100010000C948A000C948A000C948A000C948A0038
:100020000C948A000C948A000C948A000C948A0028
:100030000C948A000C948A000C948A000C948A0018
:100040000C9490040C948A000C945E040C94380474
:100050000C948A000C948A000C948A000C948A00F8
:100060000C9428050C948A0000000000250028004C
:100070002B000000000023002600290000000008DB
:10008000000201000003040700000000000000005F
:1000900000000000240027002A00010204081020AC
:1000A000408001020408102001020408102004040A
:1000B0000404040404040202020202020303030310
:1000C0000303430611241FBECFEFD8E0DEBFCDBF30
:1000D00011E0A0E0B1E0E2E6F2E102C005900D928D
:1000E000A636B107D9F722E0A6E6B1E001C01D921D
:1000F000A33FB207E1F710E0C2E6D0E004C02197C9
:10010000FE010E942909C136D107C9F70E94D00615
:100110000C942F090C94000096E0899FD0011124C3
:10012000AC57BD4F90967C936E935F9791E09196FC
:100130009C939197E091F102F091F2029091F0027C
:10014000992339F0309751F0811108C08091A002B5
:100150000994309719F05C968C91FACF0895AF927C
:10016000BF92CF92DF92EF92FF920F931F93CF93A4
:10017000DF936C017B018B01040F151FEB015E0106
:10018000AE18BF08C017D10759F06991D601ED919B
:10019000FC910190F081E02DC6010995892B79F73A
:1001A000C501DF91CF911F910F91FF90EF90DF90EC
:1001B000CF90BF90AF900895FC01538D448D252FB3
:1001C00030E0842F90E0821B930B541710F0CF96F1
:1001D000089501970895FC01918D828D981761F023
:1001E000A28DAE0FBF2FB11D5D968C91928D9F5F3A
:1001F0009F73928F90E008958FEF9FEF0895FC0119
:10020000918D828D981731F0828DE80FF11D858DCB
:1002100090E008958FEF9FEF0895FC01918D228D5E
:10022000892F90E0805C9F4F821B91098F739927E3
:10023000089587EE91E00E940D0121E0892B09F4D9
:1002400020E0822F089580E090E0892B29F00E9421
:10025000190181110C9400000895FC01A48DA80FD0
:10026000B92FB11DA35ABF4F2C91848D90E00196F8
:100270008F739927848FA689B7892C93A089B18918
:100280008C91837080648C93938D848D981306C0B9
:100290000288F389E02D80818F7D80830895EF921D
:1002A000FF920F931F93CF93DF93EC0181E0888F30
:1002B0009B8D8C8D98131AC0E889F989808185FF00
:1002C00015C09FB7F894EE89FF896083E889F989A2
:1002D00080818370806480839FBF81E090E0DF91A4
:1002E000CF911F910F91FF90EF900895F62E0B8DF7
:1002F00010E00F5F1F4F0F731127E02E8C8D8E11B2
:100300000CC00FB607FCFACFE889F989808185FF18
:10031000F5CFCE010E942D01F1CFEB8DEC0FFD2F1B
:10032000F11DE35AFF4FF0829FB7F8940B8FEA89D3
:10033000FB8980818062CFCFCF93DF93EC01888DE2
:100340008823B9F0AA89BB89E889F9898C9185FD50
:1003500003C0808186FD0DC00FB607FCF7CF8C91DE
:1003600085FFF2CF808185FFEDCFCE010E942D0168
:10037000E9CFDF91CF910895833081F028F4813067
:1003800099F08230A9F008958730A9F08830C9F03B
:100390008430B1F4809180008F7D03C08091800013
:1003A0008F7780938000089584B58F7784BD0895FA
:1003B00084B58F7DFBCF8091B0008F778093B000A4
:1003C00008958091B0008F7DF9CFCF93DF93282FD0
:1003D00030E0F901E458FF4F8491F901E656FF4FF0
:1003E000D491F901E255FF4FC491CC23A1F08111C2
:1003F0000E94BC01EC2FF0E0EE0FFF1FEE58FF4F04
:10040000A591B491EC91ED2381E090E009F480E0B6
:10041000DF91CF91089580E090E0FACF862F0C9481
:10042000E5011F93CF93DF93282F30E0F901E458C3
:10043000FF4F8491F901E656FF4FD491F901E2553F
:10044000FF4FC491CC23A9F0162F81110E94BC014B
:10045000EC2FF0E0EE0FFF1FE859FF4FA591B4918C
:100460008FB7F894EC91111108C0D095DE23DC937E
:100470008FBFDF91CF911F910895DE2BF8CF862F8C
:10048000642F0C941102CF93DF9390E0FC01E656A9
:10049000FF4F249182559F4FFC0184918823C9F01E
:1004A00090E0880F991FFC01E057FF4FA591B49190
:1004B000FC01E859FF4FC591D49161110DC09FB760
:1004C000F8948C91209582238C938881282328830B
:1004D0009FBFDF91CF910895623051F49FB7F89498
:1004E0003C91822F809583238C93E8812E2BEFCF34
:1004F0008FB7F894EC912E2B2C938FBFEACF862FD9
:10050000642F0C9443023FB7F8948091DC019091E2
:10051000DD01A091DE01B091DF0126B5A89B05C0E9
:100520002F3F19F00196A11DB11D3FBFBA2FA92F72
:10053000982F8827BC01CD01620F711D811D911D6F
:1005400042E0660F771F881F991F4A95D1F70895DB
:100550008F929F92AF92BF92CF92DF92EF92FF92D3
:100560004B015C010E9483026B017C010E948302AB
:100570006C197D098E099F09683E734081059105BC
:10058000A8F321E0821A9108A108B10888EEC80EEC
:1005900083E0D81EE11CF11C81149104A104B10474
:1005A00029F7FF90EF90DF90CF90BF90AF909F9092
:1005B0008F9008952FB7F8946091D8017091D90168
:1005C0008091DA019091DB012FBF08950F931F9363
:1005D000CF93DF93C82FD62F86E0C89FF001112458
:1005E000EC57FD4F11A2878D90A181309105F1F05C
:1005F00058F082309105F1F1039709F440C0DF9182
:10060000CF911F910F9108956623C9F361E070E0C7
:100610008C2F0E948C000E94DA026093DC0270939F
:10062000DD028093DE029093DF02E9CF0E94DA02BE
:100630000091DC021091DD022091DE023091DF0298
:10064000AB01BC01401B510B620B730B8091EE029E
:100650009091EF02B0E0A0E084179507A607B707D6
:1006600048F462E070E08C2FDF91CF911F910F91E1
:100670000C948C0063E070E0D111C1CFF4CF70E036
:1006800060E0F1CF089520918D01260F3327331FAD
:1006900021323105ECF42091B101FC0190E080E0C1
:1006A000243069F082E00895A0918D012191AC0180
:1006B00043595E4FA40FB52FB11D2C930196861799
:1006C00098F380918D01680F60938D0180E008950B
:1006D00081E0089508958FEF9FEF08958FEF9FEFCA
:1006E00008958091660190E0919581959109089512
:1006F000CF93DF93CB01EA01642F0E944303CE0125
:10070000DF91CF910895CF93DF931F92CDB7DEB7DE
:10071000698361E0CE0101960E94430381E090E08D
:100720000F90DF91CF91089590E080E00895CF93EE
:10073000DF93FC0101900020E9F73197AF01481BDE
:10074000590BBC0187EE91E00E94AF00EC0142E042
:1007500050E068E371E087EE91E00E94AF008C0FFB
:100760009D1FDF91CF9108958BE391E00E94970345
:1007700083B78E7F83BFE89882E493E09093010172
:100780008093000108951F93CF93DF9385ED8093AD
:10079000BC008091690190916A01A0916B01B091B8
:1007A0006C010796A11DB11D23E0B695A7959795FD
:1007B00087952A95D1F72091BC0024FD03C01092A3
:1007C000B10152C04091690150916A0160916B0181
:1007D00070916C01452B462B472B69F30097A105BF
:1007E000B10541F025E32A95F1F700000197A10931
:1007F000B109E1CF80916801C1E0C093670188230E
:1008000099F1D091B8001091BA008091BC008A7B18
:100810008093BC0060E082E10E94110260E083E10D
:100820000E9411021092B101C093B3011092B20163
:1008300061E082E10E94110261E083E10E94110205
:100840008091B9008E7F8093B9008091B9008D7F2F
:100850008093B90088E48093B80085E48093BC005D
:100860001093BA00D093B800DF91CF911F910895F3
:100870001F920F920FB60F9211242F933F934F9315
:100880005F936F937F938F939F93AF93BF93EF93F8
:10089000FF9387EE91E00E942D01FF91EF91BF91B0
:1008A000AF919F918F917F916F915F914F913F9108
:1008B0002F910F900FBE0F901F9018951F920F92BF
:1008C0000FB60F9211242F938F939F93EF93FF9363
:1008D000E091F701F091F8018081E091FD01F09144
:1008E000FE0182FD1BC09081809100028F5F8F739B
:1008F00020910102821741F0E0910002F0E0E951FD
:10090000FE4F958F80930002FF91EF919F918F9101
:100910002F910F900FBE0F901F9018958081F4CFEC
:100920001F920F920FB60F9211242F933F938F9324
:100930009F93AF93BF938091D8019091D901A091DB
:10094000DA01B091DB013091D70123E0230F2D377D
:1009500058F50196A11DB11D2093D7018093D801B0
:100960009093D901A093DA01B093DB018091DC016F
:100970009091DD01A091DE01B091DF010196A11DF2
:10098000B11D8093DC019093DD01A093DE01B09353
:10099000DF01BF91AF919F918F913F912F910F9068
:1009A0000FBE0F901F90189526E8230F0296A11DE9
:1009B000B11DD2CF1F920F920FB60F9211242F9319
:1009C0003F934F935F936F937F938F939F93AF93D7
:1009D000BF93EF93FF93E0910201F091030109951A
:1009E000FF91EF91BF91AF919F918F917F916F9107
:1009F0005F914F913F912F910F900FBE0F901F90DD
:100A000018951F920F920FB60F9211242F933F93B8
:100A10004F935F936F937F938F939F93AF93BF9306
:100A2000EF93FF93E0910001F09101010995FF918F
:100A3000EF91BF91AF919F918F917F916F915F9156
:100A40004F913F912F910F900FBE0F901F901895CF
:100A50001F920F920FB60F9211242F933F934F9333
:100A60005F936F937F938F939F93AF93BF93EF9316
:100A7000FF938091B900887F803609F44AC0F0F571
:100A8000883209F4A5C018F5803109F499C0B8F48A
:100A9000882309F4F5C0883009F492C0FF91EF91E2
:100AA000BF91AF919F918F917F916F915F914F9186
:100AB0003F912F910F900FBE0F901F901895883186
:100AC00009F486C0803251F78093B00114C080349D
:100AD00009F49BC040F48033B9F38833F9F680936E
:100AE000B00185ECAEC0803509F483C0883509F4C7
:100AF00094C0883499F60E94C303D0CF883909F492
:100B00008AC038F5883729F050F4883611F08037DC
:100B100029F683E08093B1011092AF0155C0883867
:100B200009F479C0803919F0803809F0B7CF809185
:100B3000AF01803208F06FC0E091AF0181E08E0F0D
:100B40008093AF018091BB00F0E0E157FE4F8083BE
:100B50003BC0803B39F0D0F4803A09F477C0883A42
:100B600009F09CCF84E08093B10110928E01109225
:100B70008D01F0E0E0E0099580918D0181110FC0B9
:100B800081E080938D0110926D0109C0803C09F4D1
:100B9000A8CF883C09F4A5CF883B09F07FCFE0912E
:100BA0008E0181E08E0F80938E01F0E0E359FE4FBD
:100BB00080818093BB0090918E0180918D0129C02E
:100BC0008091D6018093BB0085EC8093BC0066CFFA
:100BD0009091D5018091D401981758F5E091D501F5
:100BE00081E08E0F8093D501F0E0EC54FE4F8081C0
:100BF000E9CFE091D50181E08E0F8093D5018091FE
:100C0000BB00F0E0EC54FE4F80839091D5018091C1
:100C1000D4019817C8F285E8D8CFE091D50181E0DA
:100C20008E0F8093D5018091BB00F0E0EC54FE4F15
:100C300080838091B30181115ECF81E08093B20106
:100C400084EA8093BC001092B10128CF85EC809398
:100C5000BC001092B1018091AF01803230F4E0917C
:100C6000AF01F0E0E157FE4F10826091AF0170E0FC
:100C70008FE891E0F0E0E0E009951092AF010ECF2F
:100C80001092B00138CF1092EA011092E90188EE7B
:100C900093E0A0E0B0E08093EB019093EC01A0938F
:100CA000ED01B093EE0180E191E09093E801809333
:100CB000E70185EC90E09093F4018093F30184ECDC
:100CC00090E09093F6018093F50180EC90E0909392
:100CD000F8018093F70181EC90E09093FA01809302
:100CE000F90182EC90E09093FC018093FB0186EC8B
:100CF00090E09093FE018093FD011092000210920B
:100D000001021092020210920302109286021092C7
:100D10008A021092890210928B0282E291E09093F3
:100D2000850280938402E0EAF2E01082148213824A
:100D30001582369682E0EC3DF807B9F788E091E03D
:100D40009093E7028093E60284E091E09093E902B9
:100D50008093E80284E08093EA028093EB0288E2C9
:100D600091E09093E5028093E4028AE090E0909312
:100D7000ED028093EC0284EF91E09093EF02809378
:100D8000EE021092F2021092F1021092E002109222
:100D9000E1021092E2021092E3021092F002089532
:100DA000789484B5826084BD84B5816084BD85B546
:100DB000826085BD85B5816085BD80916E00816052
:100DC00080936E00109281008091810082608093F8
:100DD00081008091810081608093810080918000FA
:100DE0008160809380008091B10084608093B10025
:100DF0008091B00081608093B00080917A0084601F
:100E000080937A0080917A00826080937A0080914A
:100E10007A00816080937A0080917A008068809364
:100E20007A001092C100E091F701F091F80182E0A0
:100E30008083E091F301F091F4011082E091F501DB
:100E4000F091F6018FEC80831092FF01E091FB019D
:100E5000F091FC0186E08083E091F901F091FA01C4
:100E6000808180618083E091F901F091FA018081B5
:100E700088608083E091F901F091FA0180818068B7
:100E80008083E091F901F091FA0180818F7D808368
:100E900062E082E00E944302CFB7F8948091E001C3
:100EA000811127C0E8EBF0E08491E4EAF0E094914E
:100EB000E82FF0E0EE0FFF1FE057FF4FA591B49130
:100EC000EC91E92321F461E08AE00E94110261E0E3
:100ED0008AE00E9443028CB580618CBD8CB5806431
:100EE0008CBD61E08DE00E94430261E08BE00E94D6
:100EF00043028091E0018F5F8093E001CFBF8CB50A
:100F00008C7F81608CBD8DB581608DBD61E08AE094
:100F10000E941102812C912C5401839440E0242ED4
:100F200040E0342E54EB652E53E0752E0E94DA0219
:100F30007093E6016093E5017093E4016093E3012F
:100F400060E08AE00E9411028091E3019091E40147
:100F50002091E5013091E601821B930B9093E20111
:100F60008093E10121E02093F0020E94DA020091D7
:100F7000E0021091E1022091E2023091E302AB0124
:100F8000BC01401B510B620B730B8091EC029091E2
:100F9000ED02B0E0A0E084179507A607B70708F0B8
:100FA00021C1C0E08091EA02C81760F4E091E60236
:100FB000F091E702EC0FF11D62E080810E94430294
:100FC000CF5FF0CF512C8091EB02581608F05FC034
:100FD000052D10E0E091E802F091E902E00FF11F29
:100FE00061E080810E944302E091E802F091E90211
:100FF000E00FF11F60E080810E941102D501C40161
:10100000052C04C0880F991FAA1FBB1F0A94D2F792
:101010006C017C01E094F094412C8091EA02481626
:10102000F8F4C42DD0E0E091E602F091E702EC0F75
:10103000FD1F80810E94E5012496CC0FDD1FCC5757
:10104000DD4F892B41F4888199818C299D299983D1
:1010500088834394E2CF888199818E219F21F7CFA5
:10106000E091E802F091E902E00FF11F61E0808178
:101070000E9411028091E8029091E902080F191F65
:1010800060E0F80180810E94430253949CCF04E801
:1010900012E0E8018F8D98A1892B31F41C8E8FEF1F
:1010A0009FEF9E8F8D8F19A2269692E0C03CD907A4
:1010B00089F7F12C8091EA02F81608F053C0E12C70
:1010C000CF2CD12CCC0CDD1CF601E457FD4F6F0169
:1010D0002091EB02E21608F043C0F60160817181B5
:1010E0000E2C02C0769567950A94E2F7F29E900165
:1010F00011242E0D311DE4E8F2E080E0458D568D7F
:101100002417350709F4A3C08F5F36968A30B1F7EC
:1011100060FF24C0E4E8F2E090E080E0448D4111FB
:1011200018C0E091E402F091E502E20FF31F408164
:1011300056E0589FF001599FF00D1124EC57FD4FD8
:10114000448F368F258F10A2178E61E00E94E60231
:1011500005C0019636968A30910501F7E394B8CF21
:10116000F394A8CFF12CF80181A18111F82E0A5F28
:101170001F4FC017D107B9F70E94DA026093E0024F
:101180007093E1028093E2029093E302FF2051F119
:101190008091A502882331F18091A3029091A4024D
:1011A000019701F58091A0028823F1F08EBD000027
:1011B0000DB407FEFDCF8EB561E08AE00E941102FA
:1011C0006AE070E080E090E00E94A80221143104FF
:1011D00009F4ACCE0E941901882309F4A7CE0E941D
:1011E0000000A4CE1092F0028091E1019091E20102
:1011F000803D97402CF183B7816083BF88E491E004
:101200000E94970383E591E00E9497037092010189
:1012100060920001809169008C7F80936900E89A58
:1012200083B7817F846083BF68EE73E080E090E0E5
:101230000E94A802889587E591E00E949703BCCFA1
:101240000E94DA027093E4016093E3017DCE617045
:101250007DCFEE0FFF1F0590F491E02D0994F894D7
:02126000FFCFBE
:1012620042034203050403000908070600000000C8
:101272004F01AF00DC009C010D01EB00FF000000FC
:1012820000007F023F020E023132334134353642D2
:10129200373839432A3023440D0A0057616B6520E1
:1012A2005570204D6F646500536C656570204D6FFD
:1012B2006465005A7A7A004869212049276D2041E5
:0612C20077616B6500007E
:00000001FF
