:100000000C9463000C948B000C948B000C948B006C
:100010000C948B000C948B000C948B000C948B0034
:100020000C948B000C948B000C948B000C9410059A
:100030000C948B000C948B000C948B000C948B0014
:100040000C94C6040C94E7060C948B000C948B0063
:100050000C948B000C948B000C948B000C948B00F4
:100060000C94CC050C948B000000000024002700A9
:100070002A0000000000250028002B0000000000DE
:1000800023002600290004040404040404040202DA
:100090000202020203030303030301020408102007
:1000A0004080010204081020010204081020000012
:1000B0000008000201000003040700000000000027
:1000C00000003507EE0911241FBECFEFD8E0DEBFD8
:1000D000CDBF11E0A0E0B1E0E6E6F9E102C0059095
:1000E0000D92A238B107D9F722E0A2E8B1E001C031
:1000F0001D92AA37B207E1F710E0C2E6D0E004C0D3
:100100002197FE010E94A50AC136D107C9F70E94B6
:1001100086070C94A60C0C9400008F929F92AF92CD
:10012000BF92FF920F931F93CF93DF93853B91056F
:1001300011F484EB90E0F09073022BE02F1508F49B
:100140004CC02091750208E512E0021B110927FD41
:100150001395000F111F000F111F20917402C8E8A2
:10016000D0E0C21BD10927FDD395CC0FDD1FCC0FEA
:10017000DD1F4E010D2E000CAA08BB089801012EB0
:10018000000C440B550B281939094A095B09DC019D
:100190000E94290A24EB30E040E050E00E94FF0971
:1001A000820E931EA41EB51E8C169D062CF0E8012F
:1001B000801691060CF4E4012297CC0FDD1F2FB7B7
:1001C000F8948F2D90E0FC01EE0FFF1FE80FF91F50
:1001D000EA5CFD4FD283C1832FBFDF91CF911F9186
:1001E0000F91FF90BF90AF909F908F900895AF9226
:1001F000BF92CF92DF92EF92FF920F931F93CF9314
:10020000DF936C017B018B01040F151FEB015E0175
:10021000AE18BF08C017D10759F06991D601ED910A
:10022000FC910190F081E02DC6010995892B79F7A9
:10023000C501DF91CF911F910F91FF90EF90DF905B
:10024000CF90BF90AF900895833081F028F4813033
:1002500099F08230A9F008958730A9F08830C9F06C
:100260008430B1F4809180008F7D03C08091800044
:100270008F7780938000089584B58F7784BD08952B
:1002800084B58F7DFBCF8091B0008F778093B000D5
:1002900008958091B0008F7DF9CF1F93CF93DF93A6
:1002A000282F30E0F901E255FF4F8491F901E6561D
:1002B000FF4FD491F901EA57FF4FC491CC23A9F025
:1002C000162F81110E942401EC2FF0E0EE0FFF1F8A
:1002D000EE58FF4FA591B4918FB7F894EC9111119E
:1002E00008C0D095DE23DC938FBFDF91CF911F91A3
:1002F0000895DE2BF8CFCF93DF9390E0FC01E65614
:10030000FF4F24918A579F4FFC0184918823D1F09D
:1003100090E0880F991FFC01E859FF4FA591B49117
:10032000FC01EE58FF4FC591D49161110EC09FB7EB
:10033000F8948C91E22FE0958E238C932881E22310
:10034000E8839FBFDF91CF9108958FB7F894EC9128
:10035000E22BEC938FBFF6CF3FB7F8948091190250
:1003600090911A02A0911B02B0911C0226B5A89B85
:1003700005C02F3F19F00196A11DB11D3FBFBA2F37
:10038000A92F982F8827BC01CD01620F711D811DF7
:10039000911D42E0660F771F881F991F4A95D1F77C
:1003A00008958F929F92AF92BF92CF92DF92EF9279
:1003B000FF924B015C010E94AC016B017C010E9429
:1003C000AC016C197D098E099F09683E7340810557
:1003D0009105A8F321E0821A9108A108B10888EEDE
:1003E000C80E83E0D81EE11CF11C81149104A10405
:1003F000B10429F7FF90EF90DF90CF90BF90AF90BE
:100400009F908F9008951F93CF93DF93C1E0C09387
:10041000AC01882399F1D091B8001091BA00809175
:10042000BC008A7B8093BC0060E082E10E944D01A9
:1004300060E083E10E944D011092F101C093F3014D
:100440001092F20161E082E10E944D0161E083E1DE
:100450000E944D018091B9008E7F8093B9008091F8
:10046000B9008D7F8093B90088E48093B80085E45B
:100470008093BC001093BA00D093B800DF91CF9165
:100480001F9108952091CD01260F3327331F21326C
:100490003105ECF42091F101FC0190E080E0243082
:1004A00069F082E00895A091CD012191AC014355FE
:1004B0005E4FA40FB52FB11D2C930196861798F3AC
:1004C0008091CD01680F6093CD0180E0089581E0B7
:1004D000089508958FEF9FEF08958FEF9FEF089590
:1004E0008091A60190E09195819591090895CF9210
:1004F000DF92EF92FF920F931F93CF93DF937C01D4
:10050000CB018A012091A501222389F0EB016B0127
:10051000C40ED51ECC15DD0569F06991D701ED91AA
:10052000FC910190F081E02DC7010995F3CF642F74
:100530000E944202C801DF91CF911F910F91FF905D
:10054000EF90DF90CF900895CF93DF931F92CDB7B8
:10055000DEB769832091A5012223F9F02091A4013F
:10056000203258F021E030E0FC013383228390E018
:1005700080E00F90DF91CF9108958091A301E82F43
:10058000F0E0ED57FE4F998190838F5F8093A30138
:100590008093A40181E090E0ECCF61E0CE01019670
:1005A0000E944202F7CFCF92DF92EF92FF920F9319
:1005B0001F93CF93DF93FC01C48121E02093A50119
:1005C000C09382011092A3011092A4018385682B2D
:1005D0008AE292E00E94A402D091A401D13208F0F4
:1005E00092C00E94AC016B017C018091F1018111EC
:1005F00065C082E08093F10181E08093F3018FEF89
:100600008093F00110921502D0931402A3E8B1E098
:10061000E4EFF1E080E0D81385C0109216028091DB
:100620001602CC0FC82BC09316028091F2018130C4
:1006300009F07CC01092F2010E94AC016B017C01B8
:10064000809116028093BB008091A8019091A9012E
:10065000A091AA01B091AB01892B8A2B8B2B99F029
:100660000E94AC010091A8011091A9012091AA015A
:100670003091AB016C197D098E099F090617170788
:1006800028073907E0F18091BC0083FDD9CF85ECC4
:100690008093BC000E94AC016B017C018091F10150
:1006A000823009F445C08091F0018F3F61F1809163
:1006B000F001803241F18091F00125C08091A801C4
:1006C0009091A901A091AA01B091AB01892B8A2B2D
:1006D0008B2B09F48ACF0E94AC010091A8011091E4
:1006E000A9012091AA013091AB016C197D098E09F5
:1006F0009F09061717072807390708F076CF80915A
:10070000A7010E9403021092A3011092A40110926B
:10071000A501DF91CF911F910F91FF90EF90DF9096
:10072000CF9008959D9191938F5F75CF85EEB0CF57
:100730008091A8019091A901A091AA01B091AB016B
:10074000892B8A2B8B2B09F4A9CF0E94AC01009135
:10075000A8011091A9012091AA013091AB016C1957
:100760007D098E099F09061717072807390708F022
:1007700095CFC5CF089590E080E008950F931F9323
:10078000CF938C01C62F0E94D3026C2F6460C801E6
:100790000E94D3026C2F6B7FC8010E94D30283ECAE
:1007A00090E00197F1F7CF911F910F9108950F936A
:1007B0001F93CF93DF938C01D62FC42F607F642BC0
:1007C0000E94BE0380E1D89FB00111246C2BC801A8
:1007D000DF91CF911F910F910C94BE03CF93DF93C4
:1007E000CDB7DEB728970FB6F894DEBF0FBECDBFEA
:1007F00098E0E6E0F1E0DE01119601900D929A9505
:10080000E1F790916F02981708F48FEF90E0880F4E
:10081000991F21E030E02C0F3D1F820F931FFC0138
:100820006081606840E087E692E028960FB6F89411
:10083000DEBF0FBECDBFDF91CF910C94D70340E058
:1008400061E087E692E00E94D7038BE39FE1019786
:10085000F1F7089541E00E94D70381E090E0089508
:10086000FC0101900020E9F73197AF01481B590BBB
:10087000BC0187E692E00C94F7000F931F93CF938F
:10088000DF93EC0188819981009759F02A813B819F
:100890002617370730F081E0DF91CF911F910F913C
:1008A00008958B016F5F7F4F0E94D00B009759F026
:1008B000998388831B830A832C813D81232B59F7DD
:1008C000FC011082E8CF80E0E7CF70E060E08BE5CC
:1008D00092E00E943D04811115C080915B029091CD
:1008E0005C02009711F00E94470B10925C0210927C
:1008F0005B021092600210925F0210925E021092F0
:100900005D0208951092600210925F0280915B0276
:1009100090915C026EE371E00C949F0C85ED8093E6
:10092000BC008091A8019091A901A091AA01B09169
:10093000AB010796A11DB11D23E0B695A79597952C
:1009400087952A95D1F72091BC0024FD03C0109211
:10095000F10108954091A8015091A9016091AA0167
:100960007091AB01452B462B472B69F30097A105EE
:10097000B10541F025E32A95F1F700000197A1099F
:10098000B109E1CF8091A7010C9403021F920F924D
:100990000FB60F9211242F933F938F939F93AF9392
:1009A000BF9380911D0290911E02A0911F02B091F1
:1009B00020023091180223E0230F2D3758F50196BD
:1009C000A11DB11D2093180280931D0290931E0259
:1009D000A0931F02B09320028091190290911A02F5
:1009E000A0911B02B0911C020196A11DB11D809324
:1009F000190290931A02A0931B02B0931C02BF919C
:100A0000AF919F918F913F912F910F900FBE0F90BB
:100A10001F90189526E8230F0296A11DB11DD2CF75
:100A20001F920F920FB60F9211242F933F934F9363
:100A30005F936F937F938F939F93AF93BF93CF9366
:100A4000DF93EF93FF9380911702C0915A02D0E099
:100A500087FF24C0109285001092840080911702B5
:100A60008F5F8093170280911702082E000C990B5C
:100A70008C179D0724F4809117028C30C4F180916B
:100A8000840090918500049680349C4908F47AC0D3
:100A90008091840090918500049676C08091170221
:100AA000082E000C990B8C179D07C4F6E0911702D5
:100AB0008E2FEE0F990BFC01EE0FFF1FE80FF91FB1
:100AC000EA5CFD4F808186FFC9CFE09117028E2F2F
:100AD000EE0F990BFC01EE0FFF1FE80FF91FEA5C08
:100AE000FD4F808160E08F730E944D01B7CF209150
:100AF000840030918500E09117028E2FEE0F990B44
:100B0000FC01EE0FFF1FE80FF91FEA5CFD4F81812A
:100B10009281820F931F9093890080938800E091C7
:100B200017028E2FEE0F990BFC01EE0FFF1FE80F3F
:100B3000F91FEA5CFD4F808186FF11C0E09117022A
:100B40008E2FEE0F990BFC01EE0FFF1FE80FF91F20
:100B5000EA5CFD4F808161E08F730E944D01FF913F
:100B6000EF91DF91CF91BF91AF919F918F917F9145
:100B70006F915F914F913F912F910F900FBE0F900A
:100B80001F90189580E49CE99093890080938800D9
:100B90008FEF80931702E3CF1F920F920FB60F9241
:100BA00011242F933F934F935F936F937F938F9372
:100BB0009F93AF93BF93EF93FF938091B900887F8A
:100BC000803609F44AC0F0F5883209F4A5C018F55A
:100BD000803109F499C0B8F4882309F4F5C088304D
:100BE00009F492C0FF91EF91BF91AF919F918F91C6
:100BF0007F916F915F914F913F912F910F900FBE19
:100C00000F901F901895883109F486C0803251F7F3
:100C10008093F00114C0803409F49BC040F4803309
:100C2000B9F38833F9F68093F00185ECAEC08035D6
:100C300009F483C0883509F494C0883499F60E9479
:100C40008E04D0CF883909F48AC038F5883729F066
:100C500050F4883611F0803729F683E08093F10153
:100C60001092EF0155C0883809F479C0803919F025
:100C7000803809F0B7CF8091EF01803208F06FC063
:100C8000E091EF0181E08E0F8093EF018091BB0036
:100C9000F0E0E153FE4F80833BC0803B39F0D0F45D
:100CA000803A09F477C0883A09F09CCF84E08093B9
:100CB000F1011092CE011092CD01F0E0E0E0099533
:100CC0008091CD0181110FC081E08093CD01109200
:100CD000AD0109C0803C09F4A8CF883C09F4A5CF38
:100CE000883B09F07FCFE091CE0181E08E0F8093A9
:100CF000CE01F0E0E355FE4F80818093BB009091E0
:100D0000CE018091CD0129C0809116028093BB0055
:100D100085EC8093BC0066CF9091150280911402FF
:100D2000981758F5E091150281E08E0F8093150217
:100D3000F0E0EC50FE4F8081E9CFE091150281E0B8
:100D40008E0F809315028091BB00F0E0EC50FE4FB7
:100D5000808390911502809114029817C8F285E85B
:100D6000D8CFE091150281E08E0F8093150280911B
:100D7000BB00F0E0EC50FE4F80838091F3018111C5
:100D80005ECF81E08093F20184EA8093BC001092F0
:100D9000F10128CF85EC8093BC001092F101809185
:100DA000EF01803230F4E091EF01F0E0E153FE4FCB
:100DB00010826091EF0170E08FEC91E0F0E0E0E0F4
:100DC00009951092EF010ECF1092F00138CF1F92CB
:100DD0000F920FB60F9211248F938EB58093280235
:100DE00081E0809329028F910F900FBE0F901F908A
:100DF0001895EF92FF920F931F93CF93DF93EC011F
:100E00007B01198218821B821A821D821C82FB01BF
:100E100001900020E9F731978F01061B170BB801ED
:100E20000E943D0428813981811113C021153105AB
:100E300019F0C9010E94470B198218821D821C8279
:100E40001B821A82DF91CF911F910F91FF90EF903B
:100E500008951D830C83B701C901DF91CF911F91C4
:100E60000F91FF90EF900C949F0C10922D02109216
:100E70002C0288EE93E0A0E0B0E080932E029093E5
:100E80002F02A0933002B093310282E191E090935F
:100E90002B0280932A0280915A028C3098F591E0BF
:100EA000980F90935A028093730290E0FC01EE0F2A
:100EB000FF1FE80FF91FEA5CFD4F88EB9BE0928370
:100EC000818310926A021092690284E291E0909309
:100ED00068028093670287E280936B0285E18093CA
:100EE000700284E080937102109272026CE271E0F1
:100EF00081E692E00E94F9066EE371E08BE592E0F4
:100F00000C94F9068FEF80937302DBCFCF93DF93BE
:100F100000D0CDB7DEB7789484B5826084BD84B547
:100F2000816084BD85B5826085BD85B5816085BDE4
:100F300080916E00816080936E001092810080919C
:100F40008100826080938100809181008160809324
:100F50008100809180008160809380008091B10049
:100F600084608093B1008091B00081608093B00074
:100F700080917A00846080937A0080917A00826008
:100F800080937A0080917A00816080937A008091CA
:100F90007A00806880937A001092C10080916C0280
:100FA000886080936C0214E0F12EF0926F0262E38D
:100FB00070E080E090E00E94D1016091720287E6CB
:100FC00092E00E94D30268EE73E080E090E00E941D
:100FD000D10160E387E692E00E94BE030BE416E4D1
:100FE000C8010197F1F760E387E692E00E94BE0333
:100FF000C8010197F1F760E387E692E00E94BE0323
:1010000083E592E00197F1F760E287E692E00E94C3
:10101000BE0360916C02606240E087E692E00E944D
:10102000D703F0926D0240E06CE087E692E00E9408
:10103000D7030E941F0482E080936E0240E066E0C6
:1010400087E692E00E94D70340E062E087E692E004
:101050000E94D7038BE39FE10197F1F780E00E94A4
:10106000EE0380E391E00E94300481E00E94EE03F1
:101070008FE391E00E94300461E08CE00E947B01EC
:101080008CB580648CBD8CB580688CBD80917302FA
:101090008C3008F051C061E089E00E947B018091B2
:1010A0007302282F30E0F901EE0FFF1FE20FF31F4C
:1010B000EA5CFD4F9081907C99609083109274025D
:1010C000109275022CE0622F0E94990A829FB00153
:1010D000112430E020E0AB01420F531FFA01EE0F64
:1010E000FF1FE40FF51FEA5CFD4F908196FD16C0CF
:1010F0002F5F3F4F2C30310571F781110FC01092D7
:10110000800082E08093810010928500109284001C
:10111000B19A80916F00826080936F00E0917302BA
:101120008E2F90E0FC01EE0FFF1FE80FF91FEA5C25
:10113000FD4F80818064808360E087E00E947B01B6
:1011400095EBC92E90E0D92E21EAA22E20E0B22EF6
:101150003DE8832E30E0932E40E0E42E40E0F42E74
:1011600080912902882309F405C110922902609117
:10117000280241E087E692E00E94D703809128028E
:1011800089831A8200915F02109160020F5F1F4FE6
:10119000B8018BE592E00E943D04882399F02091EC
:1011A0005B0230915C0280915F0290916002BE010F
:1011B0006F5F7F4F820F931F0E949F0C10936002FE
:1011C00000935F0220915F0230916002809165027E
:1011D000909166022817390709F0CCC080915F0210
:1011E0009091600228173907C1F480915B029091B9
:1011F0005C026091610270916202009709F472C012
:101200006115710539F4232B09F47AC0FC01808142
:1012100090E073C00E94960C70C00E9465040E940A
:101220001F0480E00E94EE0381E691E00E943004FA
:1012300081E00E94EE0384E491E00E9430046CE2BD
:1012400071E080E090E00E94D1010E941F0483E7DA
:1012500091E00E9430046CE271E080E090E00E9436
:10126000D1010E941F0480E00E94EE0380E391E020
:101270000E94300481E00E94EE038FE391E078C089
:1012800081110E942401E62DF0E0EE0FFF1FE458CB
:10129000FF4FA591B4918C91782209F485C01092EA
:1012A000270204EB10E0C8010E948D006AE070E0A4
:1012B00080E090E00E94D10101501109093511052B
:1012C00091F70E941F0480E00E94EE0380E391E00A
:1012D0000E94300481E00E94EE038FE391E00E94BF
:1012E000300466C06115710559F0232B49F0FB01EC
:1012F000808190E0919581959109892B09F08DCF9E
:1013000081E0809327020E9465040E941F0480E010
:101310000E94EE0385E691E00E94300481E00E9485
:10132000EE0384E491E00E9430042FB7F89480919A
:101330001D0290911E02A0911F02B09120022FBFAA
:1013400090932602809325020AE510E0C8010E94CE
:101350008D006AE070E080E090E00E94D1010F5FB4
:101360001F4F053B110591F70E941F0484E591E092
:101370000E943004009123021091240280912502E2
:1013800090912602081B190B109322020093210250
:1013900080912702882361F0F6018491F501749011
:1013A000F401649061106CCF083B1B400CF077CFC8
:1013B0002FB7F89480911D0290911E02A0911F02F8
:1013C000B09120022FBF9093240280932302E11456
:1013D000F10409F4C5CE0E940000C2CE80915B02E8
:1013E00090915C02009711F00E94470B809161027E
:1013F00090916202009711F00C94470B0895052E0E
:1014000097FB1EF400940E94160A57FD07D00E9415
:10141000680A07FC03D04EF40C94160A50954095C8
:10142000309521953F4F4F4F5F4F08959095809590
:10143000709561957F4F8F4F9F4F08950E948A0A44
:10144000A59F900DB49F900DA49F800D911D112418
:101450000895B7FF0C941E0A0E941E0A821B930B6C
:1014600008952F923F924F925F926F927F928F9248
:101470009F92AF92BF92CF92DF92EF92FF920F9323
:101480001F93CF93DF93CDB7DEB7CA1BDB0B0FB62D
:10149000F894DEBF0FBECDBF09942A8839884888EA
:1014A0005F846E847D848C849B84AA84B984C88480
:1014B000DF80EE80FD800C811B81AA81B981CE0F77
:1014C000D11D0FB6F894DEBF0FBECDBFED0108955C
:1014D000A1E21A2EAA1BBB1BFD010DC0AA1FBB1F38
:1014E000EE1FFF1FA217B307E407F50720F0A21BAA
:1014F000B30BE40BF50B661F771F881F991F1A9417
:1015000069F760957095809590959B01AC01BD0140
:10151000CF010895A29FB001B39FC001A39F700D9A
:10152000811D1124911DB29F700D811D1124911DEB
:101530000895991B79E004C0991F961708F0961B2F
:10154000881F7A95C9F780950895EE0FFF1F0590C3
:10155000F491E02D09940F931F93CF93DF93823082
:10156000910510F482E090E0E0917802F091790228
:1015700030E020E0B0E0A0E0309799F4211531058B
:1015800009F44AC0281B390B24303105D8F58A816B
:101590009B816115710589F1FB0193838283FE01B3
:1015A00011C0408151810281138148175907E0F031
:1015B0004817590799F4109761F012960C931297F7
:1015C00013961C933296CF01DF91CF911F910F910B
:1015D00008950093780210937902F4CF2115310514
:1015E00051F04217530738F0A901DB019A01BD0100
:1015F000DF01F801C1CFEF01F9CF90937902809319
:101600007802CDCFFE01E20FF31F81939193225018
:10161000310939832883D7CF209176023091770220
:10162000232B41F420910201309103013093770282
:10163000209376022091000130910101211531059E
:1016400041F42DB73EB74091040150910501241B90
:10165000350BE0917602F0917702E217F307A0F4E0
:101660002E1B3F0B2817390778F0AC014E5F5F4FF8
:101670002417350748F04E0F5F1F509377024093B1
:101680007602819391939FCFF0E0E0E09CCFCF93DF
:10169000DF930097E9F0FC01329713821282A09148
:1016A0007802B0917902ED0130E020E01097A1F4CA
:1016B00020813181820F931F209176023091770231
:1016C0002817390709F061C0F0937702E09376029A
:1016D000DF91CF910895EA01CE17DF07E8F54A813F
:1016E0005B819E0141155105B1F7E901FB83EA8356
:1016F00049915991C40FD51FEC17FD0761F4808102
:1017000091810296840F951FE901998388838281D4
:1017100093819B838A83F0E0E0E012968D919C9107
:1017200013970097B9F52D913C911197CD01029631
:10173000820F931F20917602309177022817390784
:1017400039F6309751F51092790210927802B093E1
:101750007702A0937602BCCFD383C28340815181AC
:10176000840F951FC817D90761F44E5F5F4F8881BA
:101770009981480F591F518340838A819B819383AC
:1017800082832115310509F0B0CFF0937902E093FF
:1017900078029ECFFD01DC01C0CF13821282D7CF29
:1017A000B0E0A0E0E6EDFBE00C94330A8C0100977A
:1017B00051F4CB010E94AB0A8C01C801CDB7DEB752
:1017C000E0E10C944F0AFC01E60FF71F9C01225048
:1017D0003109E217F30708F49DC0D901CD91DC91DE
:1017E0001197C617D70798F0C530D10530F3CE0151
:1017F00004978617970708F3C61BD70B2297C19348
:10180000D1936D937C93CF010E94470BD6CF5B01A0
:10181000AC1ABD0A4C018C0E9D1EA0917802B091AD
:101820007902512C412CF12CE12C109731F580914B
:101830007602909177028815990509F05CC04616EA
:10184000570608F058C0809100019091010100975F
:1018500041F48DB79EB74091040150910501841B5E
:10186000950BE817F90708F055C0F0937702E0935D
:101870007602F90171836083A0CF8D919C911197BD
:1018800012966C90129713967C901397A815B90531
:1018900059F56C0142E0C40ED11CCA14DB0420F1DE
:1018A000AC014A195B09DA011296159780F0628241
:1018B000738251834083D9016D937C93E114F104C9
:1018C00071F0D7011396FC93EE93129776CF229680
:1018D0008C0F9D1FF90191838083F301EFCFF0936B
:1018E0007902E093780269CF4816590608F42C0172
:1018F0007D01D3019ACFCB010E94AB0A7C010097F6
:1019000049F0AE01B8010E948D0CC8010E94470B3E
:10191000870153CF10E000E050CFFB01DC0102C093
:1019200001900D9241505040D8F70895FB01DC0121
:101930008D91019080190110D9F3990B0895FB0145
:10194000DC0101900D920020E1F7089510E0C2E65D
:10195000D0E004C0FE010E94A50A2196C336D1073B
:06196000C9F7F894FFCF67
:1019660000007A02800000004000140054000000CD
:101976000000A4027702BB03690270026D026A02CC
:10198600000000002A04F700BB03BA03313233001B
:101996004C6F636B657220696E7075743A20002D0A
:1019A6002D3E2000502041205320532057204F2009
:1019B6005220440057656C636F6D652C2073697205
:1019C6000049204E2043204F2052205220452043DC
:1019D6002054005265646972656374696E672E2EC1
:0219E6002E00D1
:00000001FF
