:100000000C945E000C9486000C9486000C94860080
:100010000C9486000C9486000C9486000C94860048
:100020000C9486000C9486000C9486000C94860038
:100030000C9486000C9486000C9486000C94860028
:100040000C9452040C94B7050C9486000C94860012
:100050000C9486000C9486000C9486000C94860008
:100060000C949C040C94860000000008000201001F
:100070000003040700000000000000000000000072
:10008000250028002B0000000000240027002A0083
:10009000040404040404040402020202020203032E
:1000A0000303030301020408102040800102040836
:1000B0001020010204081020C905EF0711241FBEFB
:1000C000CFEFD8E0DEBFCDBF22E0ACEDB1E001C0A4
:1000D0001D92A63AB207E1F711E0A0E0B1E0EAE82C
:1000E000F4E102C005900D92AC3DB107D9F710E0E4
:1000F000CDE5D0E004C02197FE010E943708CC3541
:10010000D107C9F70E94F0050C94380A0C9400003E
:10011000AF92BF92CF92DF92EF92FF920F931F9315
:10012000CF93DF936C017B018B01040F151FEB0153
:100130005E01AE18BF08C017D10759F06991D6010A
:10014000ED91FC910190F081E02DC6010995892B7C
:1001500079F7C501DF91CF911F910F91FF90EF903B
:10016000DF90CF90BF90AF90089590E0FC01E859E8
:10017000FF4F2491FC01EC55FF4F3491FC01E057F7
:10018000FF4FE491EE23C9F0222339F0233001F12F
:10019000A8F4213019F1223029F1F0E0EE0FFF1F11
:1001A000E458FF4FA591B4918FB7F894EC91611189
:1001B00026C030953E233C938FBF08952730A9F089
:1001C0002830C9F0243049F7809180008F7D03C02A
:1001D000809180008F7780938000DFCF84B58F7708
:1001E00084BDDBCF84B58F7DFBCF8091B0008F774E
:1001F0008093B000D2CF8091B0008F7DF9CF3E2B9D
:10020000DACF3FB7F8948091760290917702A0916F
:100210007802B091790226B5A89B05C02F3F19F04E
:100220000196A11DB11D3FBFBA2FA92F982F882776
:10023000BC01CD01620F711D811D911D42E0660F51
:10024000771F881F991F4A95D1F708958F929F9223
:10025000AF92BF92CF92DF92EF92FF924B015C017F
:100260000E9401016B017C010E9401016C197D0952
:100270008E099F09683E734081059105A8F321E02E
:10028000821A9108A108B10888EEC80E83E0D81E32
:10029000E11CF11C81149104A104B10429F7FF9021
:1002A000EF90DF90CF90BF90AF909F908F90089588
:1002B0001F93CF93DF93C1E0C0930602882399F187
:1002C000D091B8001091BA008091BC008A7B8093D5
:1002D000BC0060E082E10E94B50060E083E10E9422
:1002E000B50010924B02C0934D0210924C0261E097
:1002F00082E10E94B50061E083E10E94B500809137
:10030000B9008E7F8093B9008091B9008D7F809372
:10031000B90088E48093B80085E48093BC00109312
:10032000BA00D093B800DF91CF911F91089520912A
:100330002702260F3327331F21323105ECF4209199
:100340004B02FC0190E080E0243069F082E00895E7
:10035000A09127022191AC01495F5D4FA40FB52FF9
:10036000B11D2C930196861798F380912702680F90
:100370006093270280E0089581E0089508958FEF4B
:100380009FEF08958FEF9FEF08958091000290E016
:100390009195819591090895CF92DF92EF92FF9206
:1003A0000F931F93CF93DF937C01CB018A012091A0
:1003B000FF01222389F0EB016B01C40ED51ECC1581
:1003C000DD0569F06991D701ED91FC910190F08113
:1003D000E02DC7010995F3CF642F0E949701C80152
:1003E000DF91CF911F910F91FF90EF90DF90CF9011
:1003F0000895CF93DF931F92CDB7DEB76983209125
:10040000FF012223F9F02091FE01203258F021E073
:1004100030E0FC013383228390E080E00F90DF9195
:10042000CF9108958091FD01E82FF0E0E352FE4F57
:10043000998190838F5F8093FD018093FE0181E01D
:1004400090E0ECCF61E0CE0101960E949701F7CFDA
:10045000CF92DF92EF92FF920F931F93CF93DF9390
:10046000FC01C48121E02093FF01C093DC011092C4
:10047000FD011092FE018385682B8EE792E00E94B9
:10048000F901D091FE01D13208F092C00E94010121
:100490006B017C0180914B02811165C082E08093E9
:1004A0004B0281E080934D028FEF80934A021092BD
:1004B0006F02D0936E02ADEDB1E0EEE4F2E080E0C9
:1004C000D81385C01092700280917002CC0FC82B97
:1004D000C093700280914C02813009F07CC0109270
:1004E0004C020E9401016B017C018091700280939B
:1004F000BB008091020290910302A0910402B0918E
:100500000502892B8A2B8B2B99F00E940101009107
:1005100002021091030220910402309105026C192D
:100520007D098E099F090617170728073907E0F18B
:100530008091BC0083FDD9CF85EC8093BC000E94E4
:1005400001016B017C0180914B02823009F445C0AE
:1005500080914A028F3F61F180914A02803241F1DD
:1005600080914A0225C08091020290910302A091DD
:100570000402B0910502892B8A2B8B2B09F48ACFB8
:100580000E940101009102021091030220910402D5
:10059000309105026C197D098E099F09061717070E
:1005A0002807390708F076CF809101020E94580190
:1005B0001092FD011092FE011092FF01DF91CF9188
:1005C0001F910F91FF90EF90DF90CF9008959D9134
:1005D00091938F5F75CF85EEB0CF8091020290919D
:1005E0000302A0910402B0910502892B8A2B8B2B68
:1005F00009F4A9CF0E9401010091020210910302A7
:1006000020910402309105026C197D098E099F0921
:10061000061717072807390708F095CFC5CF0895A3
:1006200090E080E008950F931F93CF938C01C62F25
:100630000E9428026C2F6460C8010E9428026C2F5F
:100640006B7FC8010E94280283EC90E00197F1F7CC
:10065000CF911F910F9108950F931F93CF93DF9325
:100660008C01D62FC42F607F642B0E94130380E17E
:10067000D89FB00111246C2BC801DF91CF911F913D
:100680000F910C941303CF93DF93CDB7DEB7289768
:100690000FB6F894DEBF0FBECDBF98E0E6E0F1E004
:1006A000DE01119601900D929A95E1F790919E02CC
:1006B000981710F48FEF890F90E0880F991F21E0B1
:1006C00030E02C0F3D1F820F931FFC01608160689A
:1006D00040E086E992E028960FB6F894DEBF0FBEA0
:1006E000CDBFDF91CF910C942C0340E061E086E90F
:1006F00092E00E942C038BE39FE10197F1F70895AC
:1007000041E00E942C0381E090E00895FC010190FB
:100710000020E9F73197AF01481B590BBC0186E96E
:1007200092E00C9488000F931F93CF93DF93EC011A
:1007300088819981009759F02A813B8126173707D4
:1007400030F081E0DF91CF911F910F9108958B01DF
:100750006F5F7F4F0E946209009759F099838883E9
:100760001B830A832C813D81232B59F7FC011082C6
:10077000E8CF80E0E7CFCF93DF93EC0119821882B6
:100780001B821A821D821C8270E060E00E9493032B
:100790002881398181110FC02115310519F0C90156
:1007A0000E94D908198218821D821C821B821A821B
:1007B000DF91CF9108951D821C8269E371E0C90128
:1007C000DF91CF910C94310AEF92FF920F931F9318
:1007D000CF93DF93EC017B01FB0101900020E9F74F
:1007E00031978F01061B170BB8010E9493032881D4
:1007F0003981811113C02115310519F0C9010E94F9
:10080000D908198218821D821C821B821A82DF91EC
:10081000CF911F910F91FF90EF9008951D830C834E
:10082000B701C901DF91CF911F910F91FF90EF9018
:100830000C94310A85ED8093BC0080910202909166
:100840000302A0910402B09105020796A11DB11DFB
:1008500023E0B695A795979587952A95D1F720918E
:10086000BC0024FD03C010924B0208954091020287
:10087000509103026091040270910502452B462BB2
:10088000472B69F30097A105B10541F025E32A95AF
:10089000F1F700000197A109B109E1CF80910102B0
:1008A0000C9458011F920F920FB60F9211242F93A0
:1008B0003F938F939F93AF93BF93809172029091D8
:1008C0007302A0917402B09175023091710223E01D
:1008D000230F2D3758F50196A11DB11D20937102EC
:1008E0008093720290937302A0937402B093750286
:1008F0008091760290917702A0917802B09179026E
:100900000196A11DB11D8093760290937702A0936A
:100910007802B0937902BF91AF919F918F913F91EF
:100920002F910F900FBE0F901F90189526E8230F60
:100930000296A11DB11DD2CF1F920F920FB60F923A
:1009400011242F933F934F935F936F937F938F93D4
:100950009F93AF93BF93EF93FF938091B900887FEC
:10096000803609F44AC0F0F5883209F4A5C018F5BC
:10097000803109F499C0B8F4882309F4F5C08830AF
:1009800009F492C0FF91EF91BF91AF919F918F9128
:100990007F916F915F914F913F912F910F900FBE7B
:1009A0000F901F901895883109F486C0803251F756
:1009B00080934A0214C0803409F49BC040F4803311
:1009C000B9F38833F9F680934A0285ECAEC08035DE
:1009D00009F483C0883509F494C0883499F60E94DC
:1009E0001A04D0CF883909F48AC038F5883729F03D
:1009F00050F4883611F0803729F683E080934B025B
:100A00001092490255C0883809F479C0803919F02C
:100A1000803809F0B7CF80914902803208F06FC06A
:100A2000E091490281E08E0F809349028091BB00E2
:100A3000F0E0E75DFD4F80833BC0803B39F0D0F4B0
:100A4000803A09F477C0883A09F09CCF84E080931B
:100A50004B021092280210922702F0E0E0E0099584
:100A60008091270281110FC081E0809327021092AC
:100A7000070209C0803C09F4A8CF883C09F4A5CF3F
:100A8000883B09F07FCFE091280281E08E0F8093B0
:100A90002802F0E0E95FFD4F80818093BB009091D8
:100AA00028028091270229C0809170028093BB00A8
:100AB00085EC8093BC0066CF90916F0280916E02AE
:100AC000981758F5E0916F0281E08E0F80936F02C6
:100AD000F0E0E25BFD4F8081E9CFE0916F0281E0C1
:100AE0008E0F80936F028091BB00F0E0E25BFD4FC0
:100AF000808390916F0280916E029817C8F285E80A
:100B0000D8CFE0916F0281E08E0F80936F028091C9
:100B1000BB00F0E0E25BFD4F808380914D028111CC
:100B20005ECF81E080934C0284EA8093BC001092F7
:100B30004B0228CF85EC8093BC0010924B02809131
:100B40004902803230F4E0914902F0E0E75DFD4F68
:100B500010826091490270E089E292E0F0E0E0E00A
:100B60000995109249020ECF10924A0238CF1F9277
:100B70000F920FB60F9211248F938EB580937A0245
:100B800081E080937D028F910F900FBE0F901F9098
:100B90001895EEE7F2E01382128288EE93E0A0E06F
:100BA000B0E084839583A683B78382E191E091834B
:100BB0008083E6E9F2E01382128284E291E091837D
:100BC000808387E2848385E1818784E0828713863E
:100BD00080E992E00E94BB038AE892E00C94BB0398
:100BE000CF93DF9300D0CDB7DEB7789484B5826021
:100BF00084BD84B5816084BD85B5826085BD85B5C1
:100C0000816085BD80916E00816080936E0010923E
:100C100081008091810082608093810080918100B9
:100C2000816080938100809180008160809380004A
:100C30008091B10084608093B1008091B0008160A8
:100C40008093B00080917A00846080937A008091D4
:100C50007A00826080937A0080917A00816080932C
:100C60007A0080917A00806880937A001092C100A7
:100C700080919B02886080939B0244E0F42EF09266
:100C80009E0262E370E080E090E00E9426016091A5
:100C9000A10286E992E00E94280268EE73E080E0FB
:100CA00090E00E94260160E386E992E00E9413032F
:100CB0000BE416E4C8010197F1F760E386E992E0DE
:100CC0000E941303C8010197F1F760E386E992E0FF
:100CD0000E94130383E592E00197F1F760E286E951
:100CE00092E00E94130360919B02606240E086E9FB
:100CF00092E00E942C03F0929C0240E06CE086E9B6
:100D000092E00E942C030E94750382E080939D0272
:100D100040E066E086E992E00E942C0340E062E059
:100D200086E992E00E942C038BE39FE10197F1F7A3
:100D300080E00E9443038CE291E00E94860381E000
:100D40000E9443038AE391E00E948603E0EBF0E017
:100D50002491ECE9F0E08491882399F090E0880FE9
:100D6000991FFC01EA57FF4FA591B491FC01E4588B
:100D7000FF4F859194918FB7F894EC91E22BEC930F
:100D80008FBF8CB580648CBD10927D0281E0809312
:100D90007B026FE371E080E992E00E94E40369E383
:100DA00071E08AE892E00E94E40310927C028CB524
:100DB00080688CBD00E010E080917D02882309F4FA
:100DC000F2C080917C028111EEC080917B02882369
:100DD00009F4E9C010927D0260917A0241E086E94F
:100DE00092E00E942C0380917A0289831A82E0901B
:100DF0008E02F0908F028FEFE81AF80AB7018AE8A6
:100E000092E00E949303882399F020918A02309106
:100E10008B0280918E0290918F02BE016F5F7F4F97
:100E2000820F931F0E94310AF0928F02E0928E028D
:100E300020918E0230918F028091940290919502C0
:100E40002817390709F0AFC080918E0290918F0268
:100E500028173907C1F480918A0290918B02609122
:100E6000900270919102009709F44CC061157105D0
:100E700039F4232B09F454C0FC01808190E04DC06B
:100E80000E94280A4AC00E94750380E00E94430322
:100E900089E891E00E94860381E00E94430383E495
:100EA00091E00E9486036CE271E080E090E00E9495
:100EB00026010E94750380E00E9443038BE991E0C4
:100EC0000E94860366E970E080E090E00E942601BF
:100ED00081E00E9443038DEA91E00E94860382E054
:100EE0000E94430388EB91E00E9486036CE271E06C
:100EF00080E090E00E94260183E00E9443038CEC96
:100F000091E049C06115710559F0232B49F0FB01AF
:100F1000808190E0919581959109892B09F0B3CF5B
:100F200081E080937C020E94750380E00E9443036D
:100F30008DE891E00E94860381E00E94430383E4F0
:100F400091E00E9486036CE271E080E090E00E94F4
:100F500026010E94750380E00E94430383E591E02F
:100F60000E94860366E970E080E090E00E9426011E
:100F700081E00E94430383E691E00E94860382E0C1
:100F80000E94430384E791E00E94860383E00E946D
:100F900043038AE391E00E94860369E371E08AE8F3
:100FA00092E00E94E40380917D02882389F0809181
:100FB0007C02882369F080917B02882349F010929B
:100FC0007D0260917A0241E086E992E00E942C0362
:100FD0000115110509F4F0CE0E940000EDCE8091BC
:100FE0008A0290918B02009711F00E94D90880919B
:100FF000900290919102009711F00C94D9080895F5
:101000002F923F924F925F926F927F928F929F9218
:10101000AF92BF92CF92DF92EF92FF920F931F9306
:10102000CF93DF93CDB7DEB7CA1BDB0B0FB6F894B7
:10103000DEBF0FBECDBF09942A88398848885F84F7
:101040006E847D848C849B84AA84B984C884DF8068
:10105000EE80FD800C811B81AA81B981CE0FD11D4C
:101060000FB6F894DEBF0FBECDBFED010895EE0FB1
:10107000FF1F0590F491E02D09940F931F93CF93D8
:10108000DF938230910510F482E090E0E091A402B9
:10109000F091A50230E020E0B0E0A0E0309799F4B4
:1010A0002115310509F44AC0281B390B24303105BC
:1010B000D8F58A819B816115710589F1FB019383C4
:1010C0008283FE0111C04081518102811381481742
:1010D0005907E0F04817590799F4109761F01296F4
:1010E0000C93129713961C933296CF01DF91CF91F8
:1010F0001F910F9108950093A4021093A502F4CFBD
:101100002115310551F04217530738F0A901DB01D1
:101110009A01BD01DF01F801C1CFEF01F9CF909332
:10112000A5028093A402CDCFFE01E20FF31F8193AD
:1011300091932250310939832883D7CF2091A2027D
:101140003091A302232B41F420910201309103013D
:101150003093A3022093A20220910001309101015B
:101160002115310541F42DB73EB74091040150914E
:101170000501241B350BE091A202F091A302E217B6
:10118000F307A0F42E1B3F0B2817390778F0AC01AA
:101190004E5F5F4F2417350748F04E0F5F1F509387
:1011A000A3024093A202819391939FCFF0E0E0E0ED
:1011B0009CCFCF93DF930097E9F0FC013297138225
:1011C0001282A091A402B091A502ED0130E020E0CE
:1011D0001097A1F420813181820F931F2091A202E8
:1011E0003091A3022817390709F061C0F093A302D8
:1011F000E093A202DF91CF910895EA01CE17DF07B5
:10120000E8F54A815B819E0141155105B1F7E9017D
:10121000FB83EA8349915991C40FD51FEC17FD0751
:1012200061F4808191810296840F951FE901998371
:101230008883828193819B838A83F0E0E0E0129629
:101240008D919C9113970097B9F52D913C91119731
:10125000CD010296820F931F2091A2023091A3022A
:101260002817390739F6309751F51092A5021092D8
:10127000A402B093A302A093A202BCCFD383C283E3
:1012800040815181840F951FC817D90761F44E5FC3
:101290005F4F88819981480F591F518340838A810C
:1012A0009B81938382832115310509F0B0CFF093A0
:1012B000A502E093A4029ECFFD01DC01C0CF138202
:1012C0001282D7CFB0E0A0E0E8E6F9E00C94020883
:1012D0008C01009751F4CB010E943D088C01C8019C
:1012E000CDB7DEB7E0E10C941E08FC01E60FF71F56
:1012F0009C0122503109E217F30708F49DC0D9017F
:10130000CD91DC911197C617D70798F0C530D1055C
:1013100030F3CE0104978617970708F3C61BD70B47
:101320002297C193D1936D937C93CF010E94D908EA
:10133000D6CF5B01AC1ABD0A4C018C0E9D1EA0914C
:10134000A402B091A502512C412CF12CE12C109754
:1013500031F58091A2029091A3028815990509F0B8
:101360005CC04616570608F058C080910001909165
:101370000101009741F48DB79EB74091040150914F
:101380000501841B950BE817F90708F055C0F09389
:10139000A302E093A202F90171836083A0CF8D9133
:1013A0009C91119712966C90129713967C901397BC
:1013B000A815B90559F56C0142E0C40ED11CCA1438
:1013C000DB0420F1AC014A195B09DA01129615978A
:1013D00080F06282738251834083D9016D937C9344
:1013E000E114F10471F0D7011396FC93EE93129778
:1013F00076CF22968C0F9D1FF90191838083F30194
:10140000EFCFF093A502E093A40269CF48165906E6
:1014100008F42C017D01D3019ACFCB010E943D0835
:101420007C01009749F0AE01B8010E941F0AC80173
:101430000E94D908870153CF10E000E050CFFB0194
:10144000DC0102C001900D9241505040D8F7089540
:10145000FB01DC018D91019080190110D9F3990BEA
:101460000895FB01DC0101900D920020E1F7089541
:1014700010E0CDE5D0E004C0FE010E9437082196BF
:0A148000CE35D107C9F7F894FFCF6D
:10148A000000A60280000000400014005400000082
:10149A000000F901CC011003BE01C501C201BF0160
:1014AA00000000008003880010030F03536C61766C
:1014BA006520696E7075743A20002D2D3E2000312A
:1014CA00323300502041205320532057204F2052BE
:1014DA0020440057656C636F6D652C204D617374F1
:1014EA0065720053686F756C64204920657865637E
:1014FA00757465004F7065726174696F6E204F76FE
:10150A00657264726976653F0049204E2043204F18
:10151A002052205220452043205400496E7472758F
:10152A0064657220646574656374656400496E69F4
:10153A0074696174696E67004F7065726174696F6E
:10154A006E20426C6F6F6473686564005365652032
:0C155A00796F7520696E2068656C6C006C
:00000001FF
