:100000000C9463000C948B000C948B000C948B006C
:100010000C948B000C948B000C948B000C948B0034
:100020000C948B000C948B000C948B000C94590551
:100030000C948B000C948B000C948B000C948B0014
:100040000C940F050C9430070C948B000C948B00CF
:100050000C948B000C948B000C948B000C948B00F4
:100060000C9415060C948B0000000000240027005F
:100070002A0000000000250028002B0000000000DE
:1000800023002600290004040404040404040202DA
:100090000202020203030303030301020408102007
:1000A0004080010204081020010204081020000012
:1000B0000008000201000003040700000000000027
:1000C00000004207580A11241FBECFEFD8E0DEBF60
:1000D000CDBF11E0A0E0B1E0EAE3FAE102C0059093
:1000E0000D92AC3DB107D9F722E0ACEDB1E001C013
:1000F0001D92A23DB207E1F710E0C2E6D0E004C0D5
:100100002197FE010E940F0BC136D107C9F70E944B
:100110008F070C94100D0C940000CF92DF92EF9299
:10012000FF92DC01A03282E0B807D4F5A53BB1050F
:1001300014F0A4EBB0E04091CC0228E830E0241B9E
:10014000310947FD3395220F331F220F331F6901F9
:10015000330FEE08FF084091CD0228E532E0241B62
:10016000310947FD3395220F331F220F331F032E12
:10017000000C440B550B2C193D094E095F09B7FFC4
:1001800002C0B0E0A0E00E94930A24EB30E040E01F
:1001900050E00E94690AC20ED31EE41EF51ED6016D
:1001A000E091CB02EC3080F52091CC0288E890E021
:1001B000821B910927FD9395880F991F880F991F1E
:1001C000A817B90784F02091CD0288E592E0821B40
:1001D000910927FD9395880F991F880F991FA817DC
:1001E000B9070CF4CD010297880F991F4FB7F89407
:1001F0002E2F30E0F901EE0FFF1FE20FF31FE25741
:10020000FD4F928381834FBFFF90EF90DF90CF909F
:100210000895AF92BF92CF92DF92EF92FF920F9329
:100220001F93CF93DF936C017B018B01040F151F8C
:10023000EB015E01AE18BF08C017D10759F06991F4
:10024000D601ED91FC910190F081E02DC601099558
:10025000892B79F7C501DF91CF911F910F91FF9005
:10026000EF90DF90CF90BF90AF900895833081F0F2
:1002700028F4813099F08230A9F008958730A9F0F0
:100280008830C9F08430B1F4809180008F7D03C044
:10029000809180008F7780938000089584B58F7758
:1002A00084BD089584B58F7DFBCF8091B0008F779A
:1002B0008093B00008958091B0008F7DF9CF1F9397
:1002C000CF93DF93282F30E0F901E255FF4F84915F
:1002D000F901E656FF4FD491F901EA57FF4FC49157
:1002E000CC23A9F0162F81110E943601EC2FF0E0EB
:1002F000EE0FFF1FEE58FF4FA591B4918FB7F89402
:10030000EC91111108C0D095DE23DC938FBFDF91F3
:10031000CF911F910895DE2BF8CFCF93DF9390E01C
:10032000FC01E656FF4F24918A579F4FFC018491B0
:100330008823D1F090E0880F991FFC01E859FF4F06
:10034000A591B491FC01EE58FF4FC591D491611174
:100350000EC09FB7F8948C91E22FE0958E238C937A
:100360002881E223E8839FBFDF91CF9108958FB763
:10037000F894EC91E22BEC938FBFF6CF3FB7F89453
:100380008091730290917402A0917502B0917602EF
:1003900026B5A89B05C02F3F19F00196A11DB11DE0
:1003A0003FBFBA2FA92F982F8827BC01CD01620F1C
:1003B000711D811D911D42E0660F771F881F991FD7
:1003C0004A95D1F708958F929F92AF92BF92CF92A4
:1003D000DF92EF92FF924B015C010E94BE016B0124
:1003E0007C010E94BE016C197D098E099F09683E3F
:1003F000734081059105A8F321E0821A9108A108B4
:10040000B10888EEC80E83E0D81EE11CF11C8114EF
:100410009104A104B10429F7FF90EF90DF90CF90F1
:10042000BF90AF909F908F9008951F93CF93DF93CD
:10043000C1E0C0930602882399F1D091B8001091D1
:10044000BA008091BC008A7B8093BC0060E082E1AE
:100450000E945F0160E083E10E945F0110924B0205
:10046000C0934D0210924C0261E082E10E945F0154
:1004700061E083E10E945F018091B9008E7F8093EB
:10048000B9008091B9008D7F8093B90088E4809392
:10049000B80085E48093BC001093BA00D093B800F4
:1004A000DF91CF911F91089520912702260F3327C6
:1004B000331F21323105ECF420914B02FC0190E016
:1004C00080E0243069F082E00895A0912702219114
:1004D000AC01495F5D4FA40FB52FB11D2C93019660
:1004E000861798F380912702680F6093270280E0B7
:1004F000089581E0089508958FEF9FEF08958FEF9D
:100500009FEF08958091000290E091958195910967
:100510000895CF92DF92EF92FF920F931F93CF93A4
:10052000DF937C01CB018A012091FF01222389F016
:10053000EB016B01C40ED51ECC15DD0569F0699188
:10054000D701ED91FC910190F081E02DC701099553
:10055000F3CF642F0E945402C801DF91CF911F9105
:100560000F91FF90EF90DF90CF900895CF93DF939E
:100570001F92CDB7DEB769832091FF012223F9F0E6
:100580002091FE01203258F021E030E0FC0133835D
:10059000228390E080E00F90DF91CF9108958091C9
:1005A000FD01E82FF0E0E352FE4F998190838F5FC9
:1005B0008093FD018093FE0181E090E0ECCF61E04B
:1005C000CE0101960E945402F7CFCF92DF92EF92B4
:1005D000FF920F931F93CF93DF93FC01C48121E01F
:1005E0002093FF01C093DC011092FD011092FE01E7
:1005F0008385682B82E892E00E94B602D091FE01CA
:10060000D13208F092C00E94BE016B017C01809142
:100610004B02811165C082E080934B0281E08093A0
:100620004D028FEF80934A0210926F02D0936E02B8
:10063000ADEDB1E0EEE4F2E080E0D81385C01092B9
:10064000700280917002CC0FC82BC0937002809111
:100650004C02813009F07CC010924C020E94BE0115
:100660006B017C01809170028093BB00809102023B
:1006700090910302A0910402B0910502892B8A2B6C
:100680008B2B99F00E94BE0100910202109103028F
:1006900020910402309105026C197D098E099F0991
:1006A0000617170728073907E0F18091BC0083FD82
:1006B000D9CF85EC8093BC000E94BE016B017C0108
:1006C00080914B02823009F445C080914A028F3FED
:1006D00061F180914A02803241F180914A0225C045
:1006E0008091020290910302A0910402B091050250
:1006F000892B8A2B8B2B09F48ACF0E94BE01009193
:1007000002021091030220910402309105026C193B
:100710007D098E099F09061717072807390708F072
:1007200076CF809101020E9415021092FD01109275
:10073000FE011092FF01DF91CF911F910F91FF9069
:10074000EF90DF90CF9008959D9191938F5F75CF3B
:1007500085EEB0CF8091020290910302A091040235
:10076000B0910502892B8A2B8B2B09F4A9CF0E940B
:10077000BE01009102021091030220910402309107
:1007800005026C197D098E099F09061717072807AE
:10079000390708F095CFC5CF089590E080E008951F
:1007A0000F931F93CF938C01C62F0E94E5026C2FED
:1007B0006460C8010E94E5026C2F6B7FC8010E9433
:1007C000E50283EC90E00197F1F7CF911F910F9133
:1007D00008950F931F93CF93DF938C01D62FC42FCF
:1007E000607F642B0E94D00380E1D89FB001112468
:1007F0006C2BC801DF91CF911F910F910C94D00306
:10080000CF93DF93CDB7DEB728970FB6F894DEBF4E
:100810000FBECDBF98E0E6E0F1E0DE011196019059
:100820000D929A95E1F79091C702981710F48FEF07
:10083000890F90E0880F991F21E030E02C0F3D1FB9
:10084000820F931FFC016081606840E08FEB92E0B3
:1008500028960FB6F894DEBF0FBECDBFDF91CF91C3
:100860000C94E90340E061E08FEB92E00E94E90321
:100870008BE39FE10197F1F7089541E00E94E903BE
:1008800081E090E00895FC0101900020E9F73197A4
:10089000AF01481B590BBC018FEB92E00C9409018E
:1008A0000F931F93CF93DF93EC0188819981009779
:1008B00059F02A813B812617370730F081E0DF911C
:1008C000CF911F910F9108958B016F5F7F4F0E9411
:1008D0003A0C009759F0998388831B830A832C81F3
:1008E0003D81232B59F7FC011082E8CF80E0E7CF50
:1008F000CF93DF93EC01198218821B821A821D822A
:100900001C8270E060E00E945004288139818111CE
:100910000FC02115310519F0C9010E94B10B1982D0
:1009200018821D821C821B821A82DF91CF9108954A
:100930001D821C8269E371E0C901DF91CF910C94A3
:10094000090DEF92FF920F931F93CF93DF93EC016A
:100950007B01FB0101900020E9F731978F01061B15
:10096000170BB8010E94500428813981811113C0EE
:100970002115310519F0C9010E94B10B19821882A5
:100980001D821C821B821A82DF91CF911F910F91D1
:10099000FF90EF9008951D830C83B701C901DF918B
:1009A000CF911F910F91FF90EF900C94090D85ED61
:1009B0008093BC008091020290910302A0910402F6
:1009C000B09105020796A11DB11D23E0B695A7952C
:1009D000979587952A95D1F72091BC0024FD03C0F7
:1009E00010924B02089540910202509103026091CF
:1009F000040270910502452B462B472B69F30097A3
:100A0000A105B10541F025E32A95F1F70000019712
:100A1000A109B109E1CF809101020C9415021F9246
:100A20000F920FB60F9211242F933F938F939F93A2
:100A3000AF93BF938091770290917802A091790251
:100A4000B0917A023091720223E0230F2D3758F5CE
:100A50000196A11DB11D209372028093770290939D
:100A60007802A0937902B0937A02809173029091F8
:100A70007402A0917502B09176020196A11DB11D7C
:100A80008093730290937402A0937502B0937602E0
:100A9000BF91AF919F918F913F912F910F900FBE7A
:100AA0000F901F90189526E8230F0296A11DB11DE7
:100AB000D2CF1F920F920FB60F9211242F933F9314
:100AC0004F935F936F937F938F939F93AF93BF9356
:100AD000CF93DF93EF93FF9380917102C091B202A5
:100AE000D0E087FF24C0109285001092840080918E
:100AF00071028F5F8093710280917102082E000C49
:100B0000990B8C179D0724F4809171028C30C4F1ED
:100B10008091840090918500049680349C4908F46B
:100B20007AC08091840090918500049676C080916F
:100B30007102082E000C990B8C179D07C4F6E091EA
:100B400071028E2FEE0F990BFC01EE0FFF1FE80FC5
:100B5000F91FE257FD4F808186FFC9CFE0917102F6
:100B60008E2FEE0F990BFC01EE0FFF1FE80FF91F00
:100B7000E257FD4F808160E08F730E945F01B7CF25
:100B80002091840030918500E09171028E2FEE0F4C
:100B9000990BFC01EE0FFF1FE80FF91FE257FD4F05
:100BA00081819281820F931F9093890080938800A6
:100BB000E09171028E2FEE0F990BFC01EE0FFF1FDB
:100BC000E80FF91FE257FD4F808186FF11C0E091C9
:100BD00071028E2FEE0F990BFC01EE0FFF1FE80F35
:100BE000F91FE257FD4F808161E08F730E945F0122
:100BF000FF91EF91DF91CF91BF91AF919F918F9135
:100C00007F916F915F914F913F912F910F900FBE08
:100C10000F901F90189580E49CE990938900809331
:100C200088008FEF80937102E3CF1F920F920FB66F
:100C30000F9211242F933F934F935F936F937F9362
:100C40008F939F93AF93BF93EF93FF938091B900DE
:100C5000887F803609F44AC0F0F5883209F4A5C0CF
:100C600018F5803109F499C0B8F4882309F4F5C067
:100C7000883009F492C0FF91EF91BF91AF919F919D
:100C80008F917F916F915F914F913F912F910F9035
:100C90000FBE0F901F901895883109F486C08032DE
:100CA00051F780934A0214C0803409F49BC040F489
:100CB0008033B9F38833F9F680934A0285ECAEC0ED
:100CC000803509F483C0883509F494C0883499F6D6
:100CD0000E94D704D0CF883909F48AC038F5883704
:100CE00029F050F4883611F0803729F683E080939C
:100CF0004B021092490255C0883809F479C08039F6
:100D000019F0803809F0B7CF80914902803208F09D
:100D10006FC0E091490281E08E0F8093490280917B
:100D2000BB00F0E0E75DFD4F80833BC0803B39F0C6
:100D3000D0F4803A09F477C0883A09F09CCF84E077
:100D400080934B021092280210922702F0E0E0E01C
:100D500009958091270281110FC081E080932702BD
:100D60001092070209C0803C09F4A8CF883C09F41E
:100D7000A5CF883B09F07FCFE091280281E08E0F5C
:100D800080932802F0E0E95FFD4F80818093BB00F3
:100D9000909128028091270229C08091700280934F
:100DA000BB0085EC8093BC0066CF90916F02809170
:100DB0006E02981758F5E0916F0281E08E0F8093D4
:100DC0006F02F0E0E25BFD4F8081E9CFE0916F02BE
:100DD00081E08E0F80936F028091BB00F0E0E25BB8
:100DE000FD4F808390916F0280916E029817C8F238
:100DF00085E8D8CFE0916F0281E08E0F80936F027B
:100E00008091BB00F0E0E25BFD4F808380914D025A
:100E100081115ECF81E080934C0284EA8093BC0014
:100E200010924B0228CF85EC8093BC0010924B02AD
:100E300080914902803230F4E0914902F0E0E75DB0
:100E4000FD4F10826091490270E089E292E0F0E08B
:100E5000E0E00995109249020ECF10924A0238CF75
:100E60001F920F920FB60F9211248F938EB580931D
:100E70007E0281E0809381028F910F900FBE0F90D0
:100E80001F901895109285021092840288EE93E0CC
:100E9000A0E0B0E08093860290938702A09388023E
:100EA000B093890282E191E0909383028093820261
:100EB0008091B2028C3078F591E0980F9093B20255
:100EC0008093CB0290E0FC01EE0FFF1FE80FF91FAB
:100ED000E257FD4F88EB9BE0928381831092C20220
:100EE0001092C10284E291E09093C0028093BF020D
:100EF00087E28093C30285E18093C80284E08093F7
:100F0000C9021092CA0289EB92E00E94780483EB36
:100F100092E00C9478048FEF8093CB02DFCFCF93D5
:100F2000DF9300D0CDB7DEB7789484B5826084BDFE
:100F300084B5816084BD85B5826085BD85B58160DD
:100F400085BD80916E00816080936E00109281005B
:100F50008091810082608093810080918100816016
:100F600080938100809180008160809380008091D7
:100F7000B10084608093B1008091B0008160809363
:100F8000B00080917A00846080937A0080917A002A
:100F9000826080937A0080917A00816080937A00E9
:100FA00080917A00806880937A001092C1008091CD
:100FB000C40288608093C40214E0F12EF092C7024C
:100FC00062E370E080E090E00E94E3016091CA0279
:100FD0008FEB92E00E94E50268EE73E080E090E023
:100FE0000E94E30160E38FEB92E00E94D0030BE4E8
:100FF00016E4C8010197F1F760E38FEB92E00E94DD
:10100000D003C8010197F1F760E38FEB92E00E94F3
:10101000D00383E592E00197F1F760E28FEB92E075
:101020000E94D0036091C402606240E08FEB92E0C6
:101030000E94E903F092C50240E06CE08FEB92E081
:101040000E94E9030E94320482E08093C60240E0DD
:1010500066E08FEB92E00E94E90340E062E08FEBF4
:1010600092E00E94E9038BE39FE10197F1F780E0B2
:101070000E9400048CE291E00E94430481E00E94FF
:1010800000048AE391E00E94430461E08CE00E9446
:101090008D018CB580648CBD1092810281E08093BB
:1010A0007F026FE371E089EB92E00E94A10469E3A3
:1010B00071E083EB92E00E94A104109280028CB553
:1010C00080688CBD8091CB028C3008F051C061E00B
:1010D00089E00E948D018091CB02282F30E0F90138
:1010E000EE0FFF1FE20FF31FE257FD4F9081907C40
:1010F000996090831092CC021092CD022CE0622F66
:101100000E94030B829FB001112430E020E0AB016C
:10111000420F531FFA01EE0FFF1FE40FF51FE257B6
:10112000FD4F908196FD16C02F5F3F4F2C3031054B
:1011300071F781110FC01092800082E080938100CE
:101140001092850010928400B19A80916F008260A5
:1011500080936F00E091CB028E2F90E0FC01EE0FA8
:10116000FF1FE80FF91FE257FD4F808180648083E5
:1011700060E087E00E948D0195EB492E90E0592EAA
:1011800021EA622E20E0722E3DE8E32E30E0F32EBD
:1011900040E0C42E40E0D42E5AE5A52EB12C64EBDD
:1011A000862E912C80918102882309F4A7C080911A
:1011B00080028111A3C080917F02882309F49EC020
:1011C0001092810260917E0241E08FEB92E00E94DA
:1011D000E90380917E0289831A820091B7021091FF
:1011E000B8020F5F1F4FB80183EB92E00E945004DA
:1011F000882399F02091B3023091B4028091B70214
:101200009091B802BE016F5F7F4F820F931F0E94C3
:10121000090D1093B8020093B7022091B7023091E4
:10122000B8028091BD029091BE022817390709F0DB
:1012300065C08091B7029091B80228173907C1F4B0
:101240008091B3029091B4026091B9027091BA0298
:10125000009709F4B3C06115710539F4232B09F423
:10126000BBC0FC01808190E0B4C00E94000DB1C001
:101270000E94320480E00E94000489E891E00E940C
:10128000430481E00E94000483E491E00E9443044F
:101290006CE271E080E090E00E94E3010E94320481
:1012A00080E00E9400048BE991E00E94430466E91B
:1012B00070E080E090E00E94E30181E00E94000481
:1012C0008DEA91E00E94430482E00E94000488EBD2
:1012D00091E00E9443046CE271E080E090E00E94A3
:1012E000E30183E00E9400048CEC91E00E9443043F
:1012F00069E371E083EB92E00E94A1048091810296
:10130000882389F080918002882369F080917F0290
:10131000882349F01092810260917E0241E08FEBB8
:1013200092E00E94E903F2018491F3011491F70124
:101330000491002389F181110E943601E02FF0E031
:10134000EE0FFF1FE458FF4FA591B4918C91182325
:1013500019F180917D0281111FC090927C028092D0
:101360007B023324339400917B0210917C020A3576
:10137000110594F0C8010E948D0030927D026AE050
:1013800070E080E090E00E94E301015011091093A9
:101390007C0200937B02E7CF8FB7F89440917702ED
:1013A000509178026091790270917A028FBFC114D6
:1013B000D10409F4F7CE0E940000F4CE6115710546
:1013C00059F0232B49F0FB01808190E091958195A4
:1013D0009109892B09F04CCF81E0809380020E9413
:1013E000320480E00E9400048DE891E00E944304F2
:1013F00081E00E94000483E491E00E9443046CE2D7
:1014000071E080E090E00E94E3010E94320480E0FD
:101410000E94000483E591E00E94430466E970E0C5
:1014200080E090E00E94E30181E00E94000483E6F6
:1014300091E00E94430482E00E94000484E791E06E
:101440000E94430483E00E9400048AE391E00E942A
:10145000430469E371E083EB92E00E94A1048FB73B
:10146000F8944091770250917802609179027091DE
:101470007A028FBF10927D02B0927C02A0927B0212
:1014800000917B0210917C02053B11050CF036CFD8
:10149000C8010E948D006AE070E080E090E00E9448
:1014A000E3010F5F1F4F10937C0200937B02E8CF94
:1014B0008091B3029091B402009711F00E94B10B99
:1014C0008091B9029091BA02009711F00C94B10B7F
:1014D0000895052E97FB1EF400940E94800A57FD84
:1014E00007D00E94D20A07FC03D04EF40C94800A65
:1014F00050954095309521953F4F4F4F5F4F089540
:1015000090958095709561957F4F8F4F9F4F08956F
:101510000E94F40AA59F900DB49F900DA49F800D8A
:10152000911D11240895B7FF0C94880A0E94880A1F
:10153000821B930B08952F923F924F925F926F926E
:101540007F928F929F92AF92BF92CF92DF92EF9253
:10155000FF920F931F93CF93DF93CDB7DEB7CA1BD4
:10156000DB0B0FB6F894DEBF0FBECDBF09942A88FF
:10157000398848885F846E847D848C849B84AA84A7
:10158000B984C884DF80EE80FD800C811B81AA8134
:10159000B981CE0FD11D0FB6F894DEBF0FBECDBFFF
:1015A000ED010895A1E21A2EAA1BBB1BFD010DC07F
:1015B000AA1FBB1FEE1FFF1FA217B307E407F50703
:1015C00020F0A21BB30BE40BF50B661F771F881FDF
:1015D000991F1A9469F760957095809590959B0175
:1015E000AC01BD01CF010895A29FB001B39FC0011E
:1015F000A39F700D811D1124911DB29F700D811D3F
:101600001124911D0895991B79E004C0991F961724
:1016100008F0961B881F7A95C9F780950895EE0FFC
:10162000FF1F0590F491E02D09940F931F93CF9322
:10163000DF938230910510F482E090E0E091D002D7
:10164000F091D10230E020E0B0E0A0E0309799F4D2
:101650002115310509F44AC0281B390B2430310506
:10166000D8F58A819B816115710589F1FB0193830E
:101670008283FE0111C0408151810281138148178C
:101680005907E0F04817590799F4109761F012963E
:101690000C93129713961C933296CF01DF91CF9142
:1016A0001F910F9108950093D0021093D102F4CFAF
:1016B0002115310551F04217530738F0A901DB011C
:1016C0009A01BD01DF01F801C1CFEF01F9CF90937D
:1016D000D1028093D002CDCFFE01E20FF31F8193A0
:1016E00091932250310939832883D7CF2091CE029C
:1016F0003091CF02232B41F420910201309103015C
:101700003093CF022093CE0220910001309101014D
:101710002115310541F42DB73EB740910401509198
:101720000501241B350BE091CE02F091CF02E217A8
:10173000F307A0F42E1B3F0B2817390778F0AC01F4
:101740004E5F5F4F2417350748F04E0F5F1F5093D1
:10175000CF024093CE02819391939FCFF0E0E0E0DF
:101760009CCFCF93DF930097E9F0FC01329713826F
:101770001282A091D002B091D102ED0130E020E0C0
:101780001097A1F420813181820F931F2091CE0206
:101790003091CF022817390709F061C0F093CF02CA
:1017A000E093CE02DF91CF910895EA01CE17DF07D3
:1017B000E8F54A815B819E0141155105B1F7E901C8
:1017C000FB83EA8349915991C40FD51FEC17FD079C
:1017D00061F4808191810296840F951FE9019983BC
:1017E0008883828193819B838A83F0E0E0E0129674
:1017F0008D919C9113970097B9F52D913C9111977C
:10180000CD010296820F931F2091CE023091CF021C
:101810002817390739F6309751F51092D1021092F6
:10182000D002B093CF02A093CE02BCCFD383C283A9
:1018300040815181840F951FC817D90761F44E5F0D
:101840005F4F88819981480F591F518340838A8156
:101850009B81938382832115310509F0B0CFF093EA
:10186000D102E093D0029ECFFD01DC01C0CF1382F4
:101870001282D7CFB0E0A0E0E0E4FCE00C949D0A37
:101880008C01009751F4CB010E94150B8C01C8010B
:10189000CDB7DEB7E0E10C94B90AFC01E60FF71F03
:1018A0009C0122503109E217F30708F49DC0D901C9
:1018B000CD91DC911197C617D70798F0C530D105A7
:1018C00030F3CE0104978617970708F3C61BD70B92
:1018D0002297C193D1936D937C93CF010E94B10B5A
:1018E000D6CF5B01AC1ABD0A4C018C0E9D1EA09197
:1018F000D002B091D102512C412CF12CE12C109747
:1019000031F58091CE029091CF028815990509F0AA
:101910005CC04616570608F058C0809100019091AF
:101920000101009741F48DB79EB740910401509199
:101930000501841B950BE817F90708F055C0F093D3
:10194000CF02E093CE02F90171836083A0CF8D9125
:101950009C91119712966C90129713967C90139706
:10196000A815B90559F56C0142E0C40ED11CCA1482
:10197000DB0420F1AC014A195B09DA0112961597D4
:1019800080F06282738251834083D9016D937C938E
:10199000E114F10471F0D7011396FC93EE931297C2
:1019A00076CF22968C0F9D1FF90191838083F301DE
:1019B000EFCFF093D102E093D00269CF48165906D9
:1019C00008F42C017D01D3019ACFCB010E94150BA5
:1019D0007C01009749F0AE01B8010E94F70CC801E4
:1019E0000E94B10B870153CF10E000E050CFFB0104
:1019F000DC0102C001900D9241505040D8F708958B
:101A0000FB01DC018D91019080190110D9F3990B34
:101A10000895FB01DC0101900D920020E1F708958B
:101A200010E0C2E6D0E004C0FE010E940F0B219638
:0A1A3000C336D107C9F7F894FFCFC1
:101A3A000000D202800000004000140054000000A0
:101A4A000000B6028902CD037B0282027F027C0279
:101A5A00000000003D040901CD03CC03536C6176FC
:101A6A006520696E7075743A20002D2D3E20003174
:101A7A00323300502041205320532057204F205208
:101A8A0020440057656C636F6D652C204D6173743B
:101A9A0065720053686F756C6420492065786563C8
:101AAA00757465004F7065726174696F6E204F7648
:101ABA00657264726976653F0049204E2043204F63
:101ACA002052205220452043205400496E747275DA
:101ADA0064657220646574656374656400496E693F
:101AEA0074696174696E67004F7065726174696FB9
:101AFA006E20426C6F6F647368656400536565207D
:0C1B0A00796F7520696E2068656C6C00B6
:00000001FF
